:020000040000FA
:1000000048062020A5010000A9010000AB01000066
:1000100000000000000000000000000000000000E0
:10002000000000000000000000000000AD01000022
:100030000000000000000000AF010000791D00007A
:10004000B3010000B3010000B91D0000B3010000BE
:10005000B3010000B3010000B3010000B3010000D0
:1000600000000000B3010000B30100000000000028
:1000700000000000ED1D0000B3010000B30100000E
:10008000851D0000B3010000B3010000B3010000B2
:10009000B3010000B30100000000000000000000F8
:1000A000B3010000B30100000000000000000000E8
:1000B000B301000000000000B3010000B301000024
:1000C00000F002F800F042F812A030C808382418F6
:1000D0002D18AC4201D100F039F80FCCA246AB4646
:1000E0000CA730CF2D1B083F3F197C427F1E544484
:1000F0002D090426F441641EAC4201D300F026F819
:100100000126334200D0FB1A3343984754465D46DC
:10011000DFE70000342F0000442F00000000000043
:100120007047000000000000002300240025002686
:10013000103A01D378C1FBD8520700D330C100D5A3
:100140000B6070471FB51FBD10B510BD00F056FB0A
:100150001146FFF7F7FF01F0C7FF00F06EFB03B495
:10016000FFF7F2FF03BC00F0BFFB000070B50546CF
:100170000C46164602E00FCC0FC5103E102EFAD2E8
:10018000082E02D303CC03C5083E042E07D301CCAE
:1001900001C5361F03E021782970641C6D1C761E92
:1001A000F9D270BD06480047FEE7FEE7FEE7FEE72E
:1001B000FEE7FEE703480449024A044B704700008B
:1001C000C1000000480520204806202048052020C6
:1001D000F8B5042A2CD3830712D00B78491C03707E
:1001E000401C521E83070BD00B78491C0370401C27
:1001F000521E830704D00B78491C0370401C521E0A
:100200008B079B0F05D0C91ADF002023DE1B08C90E
:100210000AE0FFF7ABFFF8BD1D4608C9FD401C46CC
:10022000B4402C4310C0121F042AF5D2F308C91A97
:10023000521EF0D40B78491C0370401C521EEAD4A5
:100240000B78491C0370401C012AE4D40978017022
:10025000F8BD01E004C0091F0429FBD28B0701D5BA
:100260000280801CC90700D00270704700290BD0A3
:10027000C30702D00270401C491E022904D3830721
:1002800002D50280801C891EE3E70022EEE70022EF
:10029000DFE70000002203098B4273D3030A8B427D
:1002A00058D3030B8B423CD3030C8B4221D312E077
:1002B00003460B437FD4002243088B4274D30309C7
:1002C0008B425FD3030A8B4244D3030B8B4228D368
:1002D000030C8B420DD30902FF2212BA030C8B428E
:1002E00002D31212090265D0030B8B4219D300E02E
:1002F000090AC30B8B4201D3CB03C01A5241830BB3
:100300008B4201D38B03C01A5241430B8B4201D362
:100310004B03C01A5241030B8B4201D30B03C01A8B
:100320005241C30A8B4201D3CB02C01A5241830A05
:100330008B4201D38B02C01A5241430A8B4201D334
:100340004B02C01A5241030A8B4201D30B02C01A5E
:100350005241CDD2C3098B4201D3CB01C01A5241C5
:1003600083098B4201D38B01C01A524143098B424E
:1003700001D34B01C01A524103098B4201D30B0137
:10038000C01A5241C3088B4201D3CB00C01A52415C
:1003900083088B4201D38B00C01A524143088B4221
:1003A00001D34B00C01A5241411A00D201465241BA
:1003B000104670475DE0CA0F00D04942031000D3D9
:1003C000404253409C46002203098B422DD3030A2E
:1003D0008B4212D38901FC2212BA030A8B420CD33E
:1003E000890192118B4208D3890192118B4204D367
:1003F00089013AD0921100E08909C3098B4201D3E7
:10040000CB01C01A524183098B4201D38B01C01A20
:10041000524143098B4201D34B01C01A5241030997
:100420008B4201D30B01C01A5241C3088B4201D346
:10043000CB00C01A524183088B4201D38B00C01AF3
:100440005241D9D243088B4201D34B00C01A5241CA
:10045000411A00D201465241104663465B1001D357
:100460004042002B00D54942704763465B1000D3E1
:10047000404201B50449002802DC491C084000E064
:100480000846C046C04602BDFFFFFF7F7047704769
:1004900070470000F0B5FF252D04C609C209FF27EB
:1004A00004462E400137CB093E4348402A402B40AA
:1004B0000746002A6BD0002B69D0AA4267D0AB4216
:1004C00065D0002800DA32460125ED0529432C438A
:1004D00009022002090AD21A4B0C7F24E31A434C6A
:1004E000000A7C44E35C7D242404121914145B008C
:1004F000A218884201D3521C00E0400049420C4639
:100500005C4324115C43DB016415E318040A5C437B
:10051000C502200D0C4644436419250A5D4323039C
:10052000EC0C0D46654300030019EB184C42A34246
:1005300001D35B18401CD4052018002B07D05B00AA
:10054000C91804D3401C002901D1400840003F21B4
:1005500089048A4209D3002A08DC1106090F04D055
:10056000032149074018C00FC007F0BD0122410018
:10057000120689187F2252069142F6D205214907B8
:10058000C84201D59010F0BDFF20C005F0BD002F7E
:1005900000DA32461648AA4207D2AB4205D2190207
:1005A000090E17D0F80FC007F0BDFF2563002D0618
:1005B000AB42F9D84900A942F6D8AB4201D1A942D1
:1005C000F2D0A94201D1002101E061004908D00523
:1005D0000843F0BD1102090EFBD0FF200243D005F5
:1005E000F0BD0A460146104654E70000CA28000044
:1005F0000000C07F10B501469E240002CA15A30763
:10060000002A02D01843002A04DBA21A002A0CDDBB
:10061000D04010BD1206120E01D140004008A21AAF
:1006200003D4D04040420028F3DDFF2248001206E8
:10063000904201D9002010BDC817C043584010BDDA
:100640001F22030C02D10F2200041CD0030E01D183
:100650000002083A030F01D10001121F830F01D1DC
:100660008000921E002801DB4000521ED205511866
:10067000021251181922904004D3491C002801D1BC
:100680004908490008467047C10FC90700D04042D9
:10069000012292071143D3E701218907D0E710B562
:1006A00000F02AF8006810BD10B5044600F024F8E8
:1006B000046010BD10B5FF22C30D134009D05A408D
:1006C00007D0914205DA5C42A14202DDC905081853
:1006D00010BDC40FE407002B06D0002A06D0002965
:1006E00002DBFF20C0050443204610BD4102FCD0C0
:1006F000004810BD0000C07F004870470000202067
:1007000010B5FF231B0644009C421DD84C009C42A0
:100710001AD80346124A0B4307D4401A02D3EFF308
:10072000008010BDEFF3008010BD081A03D3EFF373
:100730000080904305E0EFF3008001219043C9075A
:10074000084380F3008810BD0D231B041A4204D017
:100750001146002000F079F810BD00F08DF810BDB2
:100760000000009030B5C30D1906214A090E31D0A2
:10077000FF292FD000283ADB01025002014301205B
:100780007D33C34000D24908012080071724091A8D
:100790002406490882102343FF252D064C00211A08
:1007A00004D4891A02D45400201800E021465208CB
:1007B0005B19F3D51A220446944007D382068A4275
:1007C00003D180218030884300E08030C009D90502
:1007D000081830BDFF2904D04100FAD0C00FC0076F
:1007E00030BD410201D0104630BD0028FCDAFAE7E6
:1007F0000000C07F00487047000020207546FFF7CA
:10080000F9FFAE46050069465346C008C00085465C
:1008100018B020B5FFF7CEFC60BCB6460026002716
:10082000C0C5C0C5C0C5C0C5C0C5C0C5C0C5C0C5A0
:10083000403D490849008D46704710B50446C04602
:10084000C0462046FFF78BFC10BDC80212D54803F6
:10085000400F002804D0C803C043012188407047DE
:10086000EFF300800001000903210907084380F32A
:10087000008870470020704710B5024800F004F867
:1008800010BD00000000C07F10B50C461107090F15
:10089000092904D00A290AD008290CD104E01146FC
:1008A0000820FFF7D2FF06E0510606D501E0510609
:1008B00001D50120C007214610BDD10607D5010191
:1008C0000909CC084907000E0006044309E0410F5E
:1008D00020024907000A0143200E00061D22D141D3
:1008E00001430846E7E7000001491820ABBEFEE7D8
:1008F000260002007047811E091F00BFFCD270470E
:10090000F0B583B01D4602920746089A0220801A6D
:100910005B4BFC18A3689B0613D402280FD0A36876
:100920009B060ED401280AD0A3689B0609D4002890
:1009300005D0A3689B0604D4001D0328EAD103B0A8
:10094000F0BD019238460E4600F0B6F83846029FD8
:1009500039462A4600F09AF821684A4A0A4071004E
:10096000511821606168484A0A4029045118C91D7C
:1009700061602A1A0123110643D00321019D4E1BF9
:1009800038180F210D02009602E0361D002973D1A0
:10099000E16A29422ED1F11E4F424F41A1688907D9
:1009A000194600D43946002966D1E16A294221D18D
:1009B000B11E4F424F41A1688907194600D43946FC
:1009C000002959D1E16A294214D1711E4F424F4189
:1009D000A1688907194600D4394600294CD1E16A3B
:1009E000294207D177427741A16889071946CCD4BB
:1009F0003946CAE701782161401C521E1106009E4B
:100A0000C6D103200199401A02E0001D012933D00C
:100A1000A168490693D5C11E4A424A41A168890787
:100A2000194600D41146002926D1A168490686D569
:100A3000811E4A424A41A1688907194600D41146DD
:100A4000002919D1A168490600D478E7411E4A421D
:100A50004A41A1688907194600D4114600290BD1E3
:100A6000A168490600D46AE742424241A168890769
:100A70001946CAD41146C8E70020606003B0F0BD33
:100A80001012000000F8FFFFF8FF00F010B5002A78
:100A90000FD091235B01C3180020DC692405240FCB
:100AA00005D00C5C1C60401C8242F6D1104680B21E
:100AB00010BD002080B210BD084A835880210B432E
:100AC000835080180F221202436813400122D20281
:100AD0009342F7D102688A430260704738120000DF
:100AE00070B50A780C231A400124240305196E6896
:100AF0009E43B2186A604978072211400359934314
:100B00005918015170BD000070B582B00B794A7957
:100B1000002A25D0184A202B02D00524E40100E049
:100B2000854C8218002B00D18824156C814E3540ED
:100B30002D191564556C35402C1954641468804D7A
:100B40002C40146054682C40546000241462546299
:100B50008F24E443156D25401565556D2540556579
:100B60006A4613718B79537109680091114600F040
:100B700087F802B070BDC04638180000F0B582B0EA
:100B80006A4A8218019211231C028B7A5B1EDEB224
:100B9000022E0AD85BB29B00354DED584923DB018C
:100BA0001F467743FB18761C02E0022500231E46F1
:100BB00002190092CC688F2214402C43B5004719CB
:100BC0003120C0013D58954325433D504868019A66
:100BD00050600878052834D801252C468440092225
:100BE00014420DD11222144217D0224ABD18BA580D
:100BF000534E16404C7A214F012C19D13E431FE031
:100C00004A7A772414401B4ABE584D4A3240121982
:100C10006C041619174ABD1812E0164ABD18BA58C6
:100C2000474E16404A7A012A08D1144A521C06E05F
:100C3000772214402643FF373E4301E00E4A164315
:100C40002E600022009C2260C01E032801D22020BA
:100C50000343087ABD2101401943019B1868394AB2
:100C600002400A4302201043186002B0F0BDC046A3
:100C7000F02D000030180000010202000101020006
:100C8000F0B52A4A82182A4BC318087920280DD0BB
:100C900000281DD10C68641E5460D56E254C25407B
:100CA0008835D5661646703688251DE00C68641EAA
:100CB0005460D46E1F4D2C401F4EA419D466146F7F
:100CC0002C40A4191467012465071C4C16460BE040
:100CD0000C6864085460D66E164C26400525ED015C
:100CE0007619D66616467036376827402F43376028
:100CF000D46A134D2C40D462146B2C40146300242E
:100D0000D46414658F24E443D56F2540D5671D68EE
:100D100025401D6049790143BD2008401168094BF9
:100D20000B40C018801C1060F0BDC04604180000C5
:100D30008418000024493E0001040000FFFFFFCF9B
:100D40008888FDFF4000FFCF10B5029CA400001969
:100D500011431943014A815010BDC046501800008C
:100D600092008018014A81507047C0461018000058
:100D700010B50122120383180C789C604B788350C5
:100D80008978014A815010BD0C11000010B5112363
:100D90001B02C418D0001E4B81420CD220681840A0
:100DA00001231B0403432360032353438801194693
:100DB00001F070FB16E020681840130199420AD236
:100DC0000123DB0318432060C800510801F062FBD7
:100DD000401C400806E02060C800114601F05AFBA4
:100DE000401C400821690B4A0A40810989B2511808
:100DF00021613F21084062698A4310186061606880
:100E00000121084062688A431018606010BDC04626
:100E1000FF7FFEFF0000FFFFB0B5112212028358D2
:100E20000124A34383500B888C781C438B88234375
:100E3000094C1C408358094D1D40631983508B7920
:100E4000CC791C43097A21437E23194080184268DB
:100E50009A4351184160B0BD18670000E798FDFF44
:100E600010B50122120383180C789C6049788150D8
:100E700010BD0000574800687047C04656480068DB
:100E80007047C046574800787047C04653480068CE
:100E90007047C046F0B583B0082900D308214F4AF7
:100EA00013688B421A4600D30A46110643D0032426
:100EB0001440D5B2591B0295042D0092019401D221
:100EC00000241EE0FC23029A1A40029200241B4ECA
:100ED0000A19072713463B40F35C035503190D46D7
:100EE000511C3940715C5970911C3940715C99708A
:100EF000D11C3940715CD9702946241D029AA24246
:100F0000E6D1019F002F009A15D00B1907252B4021
:100F10000A4EF35C0355012F0DD0631CCF182F40F0
:100F2000F75DC754019B022B05D0A31CC9182940AB
:100F3000024C615CC154D0B203B0F0BD2C0520203E
:100F4000204800687047C04680B5204800682049A6
:100F5000096801F0C5FE80BD70B51A48002505601E
:100F6000194805601948056019480560274805704B
:100F7000184805601848056018480560184805704D
:100F80001848057018480570184EFF203060184C3E
:100F90002046FFF7B0FCAA2030602046FFF7ABFCEC
:100FA000022030602046FFF7A6FC0E20306020466D
:100FB000FFF7A1FC35602046FFF79DFC0D48FFF7C9
:100FC0009AFC70BD380520202405202044052020EF
:100FD000400520200005202018052020280520207D
:100FE000200520201F0520203C0520202011104036
:100FF0000071020000A8610004490878002801D0AF
:1010000000220A70411E88417047C0461D052020FD
:10101000014800687047C046F4002020B0B5184869
:1010200018494160FF210906174A13688B430321C1
:101030008C071B1913600024846007220260480398
:10104000124A1060124D2C7012480480080410607F
:10105000114821462246FFF783FE104804801048BD
:1010600001222146FFF77CFE0E4804600E48046012
:101070000E4804600E4804602C700E480460B0BD39
:1010800010E000E0FF7C000020ED00E0A0120A402C
:10109000FC0020202205202000008640340520206E
:1010A00000208640EC002020F0002020E4002020DA
:1010B000F8002020E800202080B53F2806D8C0088E
:1010C000C001C74908188021FFF7E1F880BDC0467C
:1010D000F0B583B0002702979C480299814215D24F
:1010E0000299491C0291029981420FD20299491C2E
:1010F00002910299814209D20299491C02910299F6
:10110000814203D20299491C0291E6E702AAAE206D
:1011100050701770B3480090B34D3C260224284607
:1011200031462346FFF7ECFB02AAD520507017701A
:10113000AC480090284631462346FFF7E1FB02AA5F
:10114000802050701770A7480090284631462346EB
:10115000FFF7D6FB02AAA82050701770A148009094
:10116000284631462346FFF7CBFB02AA3F205070AA
:1011700017709C480090284631462346FFF7C0FB75
:1011800002AAD32050701770964800902846314626
:101190002346FFF7B5FB02AA5770177091480090DD
:1011A000284631462346FFF7ABFB02AA40200190B8
:1011B000507017708B480090284631462346FFF741
:1011C0009FFB02AA8D205070177086480090284619
:1011D00031462346FFF794FB02AA14205070177083
:1011E00080480090284631462346FFF789FB02AA33
:1011F0002020507017707B480090284631462346C7
:10120000FFF77EFB02AA57701770764800902846B9
:1012100031462346FFF774FB02AAA12050701770D5
:1012200070480090284631462346FFF769FB02AA22
:10123000C820507017706B480090284631462346EE
:10124000FFF75EFB02AADA20507017706548009025
:10125000284631462346FFF753FB02AA122050705E
:10126000177060480090284631462346FFF748FB38
:1012700002AA8120507017705A48009028463146C3
:101280002346FFF73DFB02AACF2050701770554848
:101290000090284631462346FFF732FB02AAD920A8
:1012A000507017704F480090284631462346FFF78C
:1012B00027FB02AAF120507017704A480090284678
:1012C00031462346FFF71CFB02AADB205070177043
:1012D00044480090284631462346FFF711FB02AAF6
:1012E0000198507017703F480090284631462346B9
:1012F000FFF706FB02AAA42050701770394800902F
:10130000284631462346FFF7FBFA02AAA620507072
:10131000177034480090284631462346FFF7F0FA0C
:1013200002AAAF20507017702E4800902846314610
:101330002346FFF7E5FA0124A1022948FEF7A7FF9B
:1013400000F006F8204603B0F0BDC04610270000AC
:10135000F0B587B02149402008700026204D0820B4
:1013600001960290039504AA019D157030465038ED
:1013700050701C4800903C2702241B4839462346E5
:10138000FFF7BEFA05AA557015701648009016486A
:1013900039462346FFF7B4FA06AA1020507015709C
:1013A000039D10480090104839462346FFF7A8FADD
:1013B0000A4C601C80222946FEF70AFF094800906B
:1013C0008123094839462246FFF79AFA0298401EBF
:1013D0008035761C0028C4D107B0F0BD6000202005
:1013E00000012020A086010000000F40F0B590B061
:1013F0000590782804D8382902D850B2202801DA7C
:1014000010B0F0BD203A059E3746763F781E8741E2
:101410005C1E601E844130467838451EA8410F90FE
:1014200035467A3D6E1EB541012B0E9301D11E4605
:1014300000E00226D0B2029027400D970F9820407E
:101440000F9025400B46CA08B618D401059FE41931
:10145000DF480719002004903870059C7F2C26D2A5
:1014600000247C7005987E2821D0BC7005987C28CB
:101470001DD8FC701BD03C7105987A2817D87C7158
:10148000002D14D0BC710598782810D8FC710F98E5
:1014900000280CD03C720598762808D87C720D98EC
:1014A000002804D0BC720598742800D8FC72062A63
:1014B00003D8521C80379642CCD80E98012800D110
:1014C000D0E002289CD118010190D81C0090012086
:1014D0000E908602FF20C701049A0D960B9703E039
:1014E000039A521C052A8BD0052002994843B9491A
:1014F0000818805C0A900392500005994418601CFB
:10150000099001980F90009A04990C9406E0491CE8
:101510000F9840300F90121D0829E1D00A98C8405A
:10152000C0074DD00F9D3D40601980B23B46D71E8D
:1015300008971F46B0420BD2A54E335C0727089C84
:1015400027400E9CBC400B9F1C4334540C9C0D9EAA
:101550000F98103038402418A7B2931E0793B74253
:101560000CD29B4CE35D06930726079B1E400E9C06
:10157000B4400D9E069B1C43954BDC55099F7C197E
:10158000A5B2B5420BD2924C635D06930726089B29
:1015900033400E9E9E40069B1E4366550D9E381896
:1015A00080B2B0420B9F0C9C0AD2894E345C072556
:1015B000079B2B400E9D9D4025430C9C35540D9E52
:1015C000491C0A98C840C007A1D0089121460F9C29
:1015D00020343C40081980B2531EB0420CD27C4DDE
:1015E0002D5C079507271F400E9DBD400B9F079E52
:1015F0003543774E35540D9E0F98303038400D18D6
:10160000ADB2B5420CD2724E765D079607261640F3
:101610000E9FB7400D9E07990F436D494F550B9F85
:1016200009990C19A4B2B44209D2694F3D5D07264D
:1016300033400E9E9E402E433E550B9F0D9E081834
:1016400080B2B0420C9C089900D360E7604F3C5CCC
:10165000072515400E9EAE4026430C9C3E540B9F22
:101660000D9E54E70520029A50435A4A1018072647
:1016700019463340012214469C400F94CB1D019320
:10168000334014469C4002948B1D00933340144613
:101690009C400E944B1D0393334014469C400D9484
:1016A0000B1D0493334014469C400C94CD1C2B46D8
:1016B000334014469C400B948C1C23463340174601
:1016C0009F400A974B1C1E40B240C908C901059EA5
:1016D00089193F4F79180991D908C90189197918D1
:1016E0000891E108C901891979180791E908C90128
:1016F0008919791806910499C908C90189197918B5
:1017000004910399CB08DB019B19F9180391009907
:10171000CB08DB019B19FD180199CB08DB019B1954
:10172000F91805910423DB4305E071B2002948D480
:101730005B1C00D364E6C6187679F7070CD1B107B5
:1017400012D4710717D431071DD4F10623D4B10682
:1017500029D47106E9D52EE00999CF1879790F9C23
:1017600021437971B107ECD50899C9184F7917430E
:101770004F717107E7D50799C9184F790A9C27431C
:101780004F713107E1D50699C9184F790B9C274352
:101790004F71F106DBD50499C9184F790C9C27438A
:1017A0004F71B106D5D50399C9184F790D9C2743C0
:1017B0004F717106B9D5E9184F790E9C27434F71C7
:1017C000B3E70599C9184E79029C26434E71AFE7DD
:1017D00000012020FC2D0000F0B589B01E46154602
:1017E000019100900F2B00D30F26002E00D1A5E011
:1017F0000A272C462846394600F04CFE4743E91B91
:101800003027394305AAB218521E1170012E00D19B
:1018100094E00A21FEF73EFD394305A83018801EEA
:101820000170022E00D189E06421284600F032FECA
:101830000A21FEF72FFD394305A83018C01E01709C
:10184000032E7BD07D20C100284600F023FE0A2114
:10185000FEF720FD394305A83018001F0170042E43
:101860006CD04F49284600F015FE0A21FEF712FD04
:10187000394305A83018401F0170052E5ED0494934
:10188000284600F007FE0A21FEF704FD394305A8AB
:101890003018801F0170062E50D04349284600F0B2
:1018A000F9FD0A21FEF7F6FC394305A83018C01FE0
:1018B0000170072E42D03D49284600F0EBFD0A2179
:1018C000FEF7E8FC394305A8301808380170082EE7
:1018D00034D03749284600F0DDFD0A21FEF7DAFC56
:1018E000394305A8301809380170092E26D031492E
:1018F000284600F0CFFD384305A971180A39087051
:101900000A2E1BD005A830180B3807700B2E15D0E7
:1019100005A830180C3807700C2E0FD005A8301809
:101920000D3807700D2E09D005A830180E38077035
:101930000E2E03D005A830180F38077005A8002117
:10194000039181550278002A019F009E26D00E98AF
:101950000490012801D0102000E008200290049893
:10196000012801D00C2400E0062405A8451C04E051
:10197000681C2A78002A054610D0F0B2F9B2D2B21B
:10198000049BFFF733FD3019C1B27A2901D9029ABD
:10199000BF187A29039EEBD80646E9E709B0F0BDE7
:1019A00010270000A086010040420F00809698009A
:1019B00000E1F50500CA9A3BF0B583B002931378B5
:1019C000002B25D00D4606460298012801D0102094
:1019D00000E0082001900298012801D00C2700E0C7
:1019E0000627541C04E0601C2378002B04460FD00B
:1019F000F0B2E9B2DAB2029BFFF7F8FCF619F0B2E6
:101A00007A2801D901996D187A28ECD90026EAE7DD
:101A100003B0F0BD10B50E4C0E492046FFF7A8F9F3
:101A20000D492046FFF7AAF80C48016810220A4326
:101A300002600B48016840220A43BF218A430260CA
:101A400001200104A54A11600649086010BDC04686
:101A500000400840EC2F0000DC2F00002850084018
:101A600010E400E00851084010B50E4C0E49204625
:101A7000FFF77EF90D492046FFF780F80C48016812
:101A800020220A430260FF2000040A490A688243B8
:101A900001208305D2180A60904904220A60064991
:101AA000086010BD0000094000300000F02F000069
:101AB0002810094000E400E00811094070B51849F9
:101AC000184808604860012042060B6813430B6009
:101AD0004B6813434B6081224A63134B9A60DA6070
:101AE00085248C645A619A6188245C650F4C80253A
:101AF0002560256303256E03266026632D0425607B
:101B0000256382248C650A4CCC65A11C5960E11CBC
:101B100019609A62400407490860086470BDC046B5
:101B2000048042408300060084804240A0120A40A4
:101B30008200040090320A4080B512481249FEF734
:101B4000CFFF03204102114802680A4302600121CD
:101B50000A02036813430360002242611F224262AB
:101B6000826B0A4306239A43826307221202836B25
:101B700093438363826A042313438362826A0A4322
:101B8000826280BD00000F400330000000120F4051
:101B9000B0B582B00D4C0E492046FFF7E9F80D496B
:101BA0002046FEF7B1FF0025204629462A46FFF7CA
:101BB000D7F80095204629462A462B46FFF7C4F859
:101BC000054801210160816002B0B0BD000086407F
:101BD00005300000083000000011864070B582B06A
:101BE0000E4C0F492046FFF7C3F80E492046FEF77A
:101BF0008BFF00260125204631462A46FFF7B0F824
:101C000000952046314632463346FFF79DF8064898
:101C100002210160856002B070BDC0460020864090
:101C20001030000014300000003186400D480021C3
:101C300001600320C1430C48021F13680B4013606E
:101C40004168012291434160110242688A43426027
:101C5000016830229143016001680F2291430160C5
:101C60007047C04608030B4004010B4010B5144CEC
:101C700014492046FFF7F4F813492046FFF7CCF843
:101C8000E120420211492046FFF780F81048C16860
:101C900070220A43C26001218A020E4B1C68144361
:101CA0001C60FF2212020C4B1C689443CA03A2184A
:101CB0001A604A03094B1A6002680A43026010BDA9
:101CC000000010401C3000001E3000000048E801F9
:101CD00000111040281010400CE400E000E100E08A
:101CE00080B500F011F8FFF7E9FEFFF79FFFFFF75F
:101CF00023FFFFF74DFFFFF771FFFFF7B7FFFFF778
:101D000089FEFFF7B1FE80BDF0B581B010481149E2
:101D1000416011484160114B5960114C6160114D97
:101D20006960114E7160114F79601148416011492D
:101D3000074A1160084A116019602160296031600A
:101D4000396001601020FEF7D6FD01B0F0BDC0463D
:101D500000080A40030000B100280A4000080F40B4
:101D600000088640002886400048084000080940D6
:101D70000008104001000026DA480168491C016093
:101D80007047C0460948016810220A4002610BD022
:101D9000D448006806490A68821A042A04D3054A0E
:101DA00013685B1C136008607047C04638500840D9
:101DB000E4002020EC0020200948016820220A408D
:101DC00002610BD0C748006806490A68821A042AD3
:101DD00004D3054A13685B1C136008607047C04653
:101DE00038100940E8002020F0002020F0B587B02E
:101DF0009E480068C0B20B2800D035E19C480068BE
:101E00009C490A68072422409B4B98540A68521C3C
:101E10000A60C1B2552903D1984A13685B1C13604C
:101E2000974E32780027032A00D91CE17A441279B0
:101E30005200974401091626552900D014E1914813
:101E40005521017001270EE19B4908708F490870E8
:101E5000984900220A708B490A78101808700227E6
:101E600001E194490A788B4B9854521C0A708549B9
:101E70000B7818180870D0B2072800D8F4E00327B0
:101E8000F1E080480078884200D0ECE07E480168AC
:101E9000491C01607D4800787D49087055282ED086
:101EA000532800D0DFE07B4D2878697809020818B4
:101EB00000B2FEF7E9FBE406214600F0ADFE7A49E8
:101EC00000F0AAFE75490860A878E97809020818A8
:101ED00000B2FEF7D9FB214600F09EFE724900F0E9
:101EE0009BFE70490860287969790902081800B2D8
:101EF000FEF7CAFB214600F08FFE6B49ACE0654A55
:101F00001078517815460902081800B2FEF7BCFB9C
:101F1000E406214600F080FE0690A878E9780902E0
:101F2000081800B2FEF7B0FB214600F075FE0490E1
:101F3000287969790902081800B2FEF7A5FB214645
:101F400000F06AFE0546059052498879C979090270
:101F5000081800B2FEF798FB214600F05DFE01462E
:101F60000390284600F058FE04460698049D294632
:101F700000F052FE214600F0B5FD014600F0B2FD32
:101F800001900598014600F047FE04462846294680
:101F900000F042FE0294214600F0A4FD014600F04C
:101FA000A1FD01467F20C405204600F099FE0146B0
:101FB000019800F033FC384900F02EFE37490860E4
:101FC0002846039900F028FE05460698059900F07A
:101FD00023FE294600F084FE014600F083FD0546FD
:101FE000214600F079FB0028019400D12C462C4DAD
:101FF0002046294600F07BFB002800D125462846D4
:1020000000F080FB244900F007FE26490860049890
:10201000059900F001FE04460698039D294600F04C
:10202000FBFD214600F05EFD014600F05BFD04462D
:102030002846294600F0F0FD0146029800F052FDC6
:10204000014600F04FFD0146019800F049FE0146AF
:10205000204600F0E3FB104900F0DEFD1349086064
:10206000134801210170377007B0F0BD20101040F7
:1020700024111040280520202C05202000052020B8
:102080003C05202014052020180520201C052020B8
:102090001F05202004052020E02E65423805202061
:1020A000000080BF24052020000034434405202088
:1020B0001D0520201E0520202005202009490A6832
:1020C0000B689B1A83420BD20B689B1A834207D280
:1020D0000B689B1A834203D20B689B1A8342EFD38F
:1020E0007047C046F400202092B0FFF7F9FDFEF7DC
:1020F00095FFFF20F4300E906530FFF7DFFFFEF70D
:102100002BFFFEF7E5FF0024D7A20126204621463B
:102110003346FFF751FC0821D5A220463346FFF78E
:102120004BFCFFF715F9D44D04940F940EE1FEF724
:10213000ADFE3546064610242046FEF7BDFF0020C2
:102140000B902146CDA22B46FFF736FC00950C20C4
:102150000C9005230D9321463246FFF73DFB2A20C4
:102160002146C7A22B46FFF727FC009536200A9090
:10217000042621460F9A3346FFF72EFB4E202146B8
:102180000894C0A22B46FFF717FCFEF777FE024625
:1021900000955A2021463346FFF71EFB182630468D
:1021A000FEF78AFF0B983146B7A22B46FFF704FCD7
:1021B000FEF760FE024600950C9831460D9BFFF736
:1021C0000BFB302009903146B0A22B46FFF7F4FB01
:1021D000FEF758FE04460009AD490A5C3C20314632
:1021E0002B46FFF703F90F200D900440A848025D2D
:1021F000422031462B46FFF7F9F80B9811901090CA
:1022000010A80C900821FEF745FE20263046FEF768
:1022100053FF0C98047820099D490A5C0B983146BD
:102220002B46FFF7E3F80D9804409948025D06201D
:1022300031462B46FFF7DAF80C9844782009944988
:102240000A5C089831462B46FFF7D0F80D980440F9
:102250008F48025D162031462B46FFF7C7F80C98D1
:10226000847820098A490A5C304631462B46FFF7BC
:10227000BDF80D9804408648025D262031462B4665
:10228000FFF7B4F80C98C478200981490A5C0998D2
:1022900031462B46FFF7AAF80D9804407C48025DB2
:1022A0000A9831462B46FFF7A1F80C9804792009CB
:1022B00077490A5C402031462B46FFF797F80D9886
:1022C00004407348025D462031462B46FFF78EF8E6
:1022D0000C98447920096E490A5C502031462B46FF
:1022E000FFF784F80D9804406948025D5620314696
:1022F0002B46FFF77BF80C988479200964490A5C27
:10230000602031462B46FFF771F80D980440604875
:10231000025D662031462B46FFF768F80C98C479B9
:1023200020095B490A5C702031462B46FFF75EF8B6
:102330000D9804405648025D762031462E464E4D9B
:102340003346FFF753F8FFF703F83C46029409E0E1
:10235000494D029CFEF75CFE0746001B0E99884221
:1023600000D9E4E6FEF748FE0028F3D0FEF7ECFDC6
:10237000294600F051FCFEF73DF904462D252021A9
:1023800000280C9500D40D460391FEF7D9FD059069
:10239000182000270B9039462A463346FFF726F8C7
:1023A000E0174440201A06900A24214600F072F8F3
:1023B000054600961E200323099039462A460A93B3
:1023C000FFF70AFA30202E2207903946089233464A
:1023D000FFF70CF800960D9465430698421B3620D3
:1023E000069039463346FFF7F7F90598224900F081
:1023F00013FCFEF7FFF8054600280C9A00D4039A58
:1024000008270B9839463346FEF7F0FFE81745409A
:10241000281A0C900D9D294600F03CF804460096C1
:102420000998394622460A9BFFF7D6F9079839469C
:10243000089A3346FEF7DAFF009665430C98421B74
:10244000069839463346FFF7C7F9FEF7E1FD044623
:102450000498201A0F99491C0F91642800D277E73D
:10246000FEF776FF049473E75961773A00000000A5
:10247000526F6C3A0000000000002041423A000018
:10248000463A0000433A0000353A00004B3A00005B
:102490003430000043088B421AD3002203098B42D8
:1024A00079D3030A8B425ED3030B8B4242D3030CD6
:1024B0008B4227D30902FF2212BA030C8B4202D3AC
:1024C0001212090203D0030B8B4233D31AE0D3E07C
:1024D000411A8041401C704703460B4371D44308A6
:1024E0008B42F5D3002203098B4254D3030A8B425B
:1024F00039D3030B8B421DD3030C8B4202D394467A
:102500006EE0090AC30B8B4201D3CB03C01A5241C0
:10251000830B8B4201D38B03C01A5241430B8B4276
:1025200001D34B03C01A5241030B8B4201D30B035F
:10253000C01A5241C30A8B4201D3CB02C01A524186
:10254000830A8B4201D38B02C01A5241430A8B4249
:1025500001D34B02C01A5241030A8B4201D30B0232
:10256000C01A5241CDD2C3098B4201D3CB01C01A4C
:10257000524183098B4201D38B01C01A5241430956
:102580008B4201D34B01C01A524103098B4201D344
:102590000B01C01A5241C3088B4201D3CB00C01AB1
:1025A000524183088B4201D38B00C01A5241430829
:1025B0008B4201D34B00C01A5241411A52411000C4
:1025C0007047CA0F00D04942031000D34042534025
:1025D00000229C4603098B422DD3030A8B4212D35F
:1025E0008901FC2212BA030A8B420CD38901921191
:1025F0008B4208D3890192118B4204D3890137D0D1
:10260000921100E08909C3098B4201D3CB01C01AA2
:10261000524183098B4201D38B01C01A52414309B5
:102620008B4201D34B01C01A524103098B4201D3A3
:102630000B01C01A5241C3088B4201D3CB00C01A10
:10264000524183088B4201D38B00C01A5241D9D228
:1026500043088B4201D34B00C01A5241411A00D2A9
:1026600001465241104663465B1000D3404270471A
:1026700063465B1000D3404201B50021004201D007
:10268000C9430846C046C04602BD4100080200D00A
:1026900004200A0E01D001221043090EFF2901D1A6
:1026A00002210843012800D10520704710B50121FF
:1026B000FEF700F810BD10B500F014FA10BD10B50B
:1026C00000210846FDF7E6FE10BD5E2110B5C943A6
:1026D0000807FDF7EFFF10BD10B500F049FAEFF362
:1026E00000804000800F012800D0002010BD10B5F0
:1026F00000F068FAEFF30080800001D4012010BDE3
:10270000002010BDF8B504464721400049060D22BF
:1027100041181206914253D83F21490688421BD9DD
:1027200060007F214008C90500F0CEFA0021C943AE
:10273000FDF7C0FF074600F0BFF9002C04DA2F4D6B
:102740002D4EA907484001E02D4E2E4D032189074B
:1027500000F062FA044606E00026214635460846A7
:1027600000F05AFA07462849384600F055FA27493A
:1027700000F0B8F9394600F04FFA254900F0B2F9F7
:10278000394600F049FA234900F0ACF9394600F027
:1027900043FA214900F0A6F900903946204600F09E
:1027A0003BFA009900F038FA07462946204600F027
:1027B00099F9394600F096F9314600F093F9F8BDE1
:1027C00039214906884208D22046FFF75EFF0428D7
:1027D00001D1FFF77AFF2046F8BDFF2109068842A4
:1027E00003D92046FFF762FFF8BD0120FDF75CFF2B
:1027F000FFF765FFF8BD00000000C9BF22AAFDB9C0
:102800000000C93F22AAFD3924FE1C3DC78AD83CDE
:102810001E67383D1B93993DAFAA2A3EF0B50C4682
:1028200001461D224B00D2069F18E52605463606B6
:10283000620087B02046B7427BD21D27FF06D7191A
:10284000B74276D24F0043003E0E1A0EB21A1B2A30
:1028500007DD002902DA854807B0F0BD844807B0DB
:10286000F0BD1A26F2422FDA002807DA002902DA30
:10287000804807B0F0BD804807B0F0BD214628462B
:10288000FDF708FE0646FFF700FF042801D1FFF719
:102890001CFF2846FFF7F9FE05462046FFF7F5FE28
:1028A00004463046FFF7F1FE042D01D0052D08D176
:1028B000042C01D0052C04D1002802D10220FDF700
:1028C000F3FE304607B0F0BD9F4211D9002902DA6D
:1028D0006A4F6B4E01E06B4F6B4E23462C461D46F4
:1028E00001220346D20708465440504019460BE0E7
:1028F000002807DA002902DA644F654E04E0654FCC
:10290000654E01E000263746421A012352001B069D
:102910009A422FD2484061490CD5BF200006029050
:10292000384600F0DDF907465D49304600F0D8F939
:102930000BE053E03F2000060290384600F0D2F84A
:1029400007465749304600F0CDF80646284602991A
:1029500000F062F9214600F0C5F800902146029887
:1029600000F05AF9294600F0AFF90099FDF792FD01
:10297000044604E021462846FDF78CFD0446014646
:1029800000F04AF94749009000F046F9464900F046
:10299000A9F8009900F040F9444900F0A3F8009923
:1029A00000F03AF9424900F09DF8009900F034F93E
:1029B000404900F097F805462046009900F02CF9B0
:1029C000294600F029F9314600F08CF8214600F044
:1029D00089F8394600F086F807B0F0BDFF263606C4
:1029E000B34201D8B24205D901462846FFF763FE3B
:1029F00007B0F0BD2F4607437F000AD0B3420CD189
:102A0000B2420AD101229207904391430D460446F7
:102A100018E7FF22D2051043F9E7B3420CD0470074
:102A20000AD0B2420ED04E000CD05340F0D4002A4F
:102A30000EDB9F26F6050DE0FF22D2051143E00FC5
:102A4000C007FFE6C90FC907FF22D2051043F9E608
:102A50005F26F6053146284600F0DEF80546314689
:102A6000204600F0D9F804462946EBE6DB0FC9BF43
:102A7000DB0FC93FDB0F49C0DB0F49400000C9BF76
:102A800022AAFDB90000C93F22AAFD39000049C0B1
:102A900022AA7DBA0000494022AA7D3A0060ED3E9C
:102AA000C30ACE372DAD65BD8FB8D53D0FB511BE6C
:102AB00061C84C3EA8AAAABE70B50546FDF752FEF5
:102AC00041000446FF204908C005411AC90F07D03C
:102AD00069004908401AC00F02D10120FDF7E4FD4A
:102AE000204670BD70B50125ED0704004C4020D490
:102AF000441A01D2001B0919C60D4B00F2B2FF2A7D
:102B000029D01B0E2CD000020C0228432C43D31AD0
:102B1000DC40051910D2280A02D3401C6D0611D0E2
:102B2000761EF6058019FF2A00DA70BDC00DC005BB
:102B300070BD694000F0DAF801200543C541521C20
:102B4000761CE8E764089C40C90161408900E7D130
:102B50000124A043E4E71B0E440200D0034870BDEB
:102B6000002AFCD1C00FC00770BD00BF0000C07FAD
:102B70000123DB0502000A430DD4DA4203D49A4252
:102B800007D488427047D84214D4D94212D488421C
:102B9000704780427047DA4203D59A42F9D58142A4
:102BA00070475B004200DA4204D24A00DA4201D2A6
:102BB0008142704710B5024AFDF7A2FD10BD00BF6B
:102BC000090013040123DB0502000A430DD4DA4295
:102BD00003D49A4207D488427047D84214D4D942C9
:102BE00012D48842704780427047DA4203D59A4235
:102BF000F9D5814270475B004200DA4204D24A00B4
:102C0000DA4201D28142704710B5024AFDF778FDE1
:102C100010BD00BF0900160470B5420064414B00AE
:102C20005C41120E39D01B0E38D0FF2A3CD0FF2B4E
:102C30003AD0D2187F3A40024902400A490A451860
:102C4000ED0106004E43000A090A48430104731AC5
:102C50004019190C4318990F04D05B08012149074A
:102C60005B1A521CD80904D3401CF50301D19D0600
:102C700007D0FF2A08D2D50506D0E4072043401923
:102C800070BD0125A843F4E7002A01DCE00770BD10
:102C90002402FF202043C00570BD1B0EFF2A03D075
:102CA000FF2B01D0E00770BDFF2636064500B54278
:102CB00006D84D00B54203D8D218FF2A00D0E7E766
:102CC000004870BD0000C07F70B50125ED07684069
:102CD00004004C4002D5694000F008F8FFF708FFF7
:102CE00070B50125ED0704004C4022D4441A02D2ED
:102CF0006C40001B0919C60D4B00F2B2FF2A4BD0E5
:102D00001B0E50D000020C02A8432C43D31ADC4007
:102D1000051B05D5AD0019D36D08761E521E37D0A0
:102D2000F605280A01D2801970BD70416D0603D0E6
:102D300070BD6940FFF7DCFE9C400902614049001C
:102D400001D0401E70BD0124A04370BD6D081DD090
:102D500001202B0C01D12D0410302B0E01D12D029E
:102D600008302B0F01D12D01001DAB0F01D1AD009B
:102D7000801CEB0F01D16D00401C361A121A6D0039
:102D8000680AF5054019012A02DB70BD002070BDFC
:102D9000C036300AC00770BD1B0E440201D1FF2BA4
:102DA00000D1024870BD002AF0D070BD0000C07F85
:102DB0008182838485868788898B8C8D8E8F919282
:102DC00093959697999A9C9D9FA0A2A3A5A7A8AA20
:102DD000ACAEB0B2B3B5B7B9BCBEC0C2C5C7C9CC42
:102DE000CED1D4D7D9DCDFE2E6E9ECF0F3F7FAFE96
:102DF00000000000020000000000000000000000D1
:102E00000000005F00000007000700147F147F141B
:102E1000242A7F2A1223130864623649552250005F
:102E200005030000001C2241000041221C00140880
:102E30003E081408083E0808005030000008080842
:102E40000808006060000020100804023E51494557
:102E50003E00427F400042615149462141454B318D
:102E60001814127F1027454545393C4A494930011D
:102E7000710905033649494936064949291E003674
:102E800036000000563600000814224100141414C5
:102E90001414004122140802015109063249595103
:102EA0003E7E1111117E7F494949363E4141412202
:102EB0007F4141413E7F494949417F090909013E1E
:102EC0004149497A7F0808087F00417F410020403E
:102ED000413F017F081422417F404040407F02046F
:102EE000027F7F0204087F3E4141413E7F0909097C
:102EF000063E4151215E7F0919294626494949323A
:102F000001017F01013F4040403F1F2040201F3F03
:102F10004030403F63140814630304780403615194
:102F200049454300007F4100020408102000417F12
:102F3000000004020102044040404040000102043D
:102F40000020545454787F48444438384444442042
:102F5000384444487F3854545418087E0901020C00
:102F60005252523E7F0804047800447D40002040C5
:102F7000443D007F1028440000417F40007C0478DD
:102F800004787C0804047838444444387C141414CD
:102F900008081414187C7C0804040848545454206D
:102FA000043F4440203C4040207C1C2040201C3CEE
:102FB0004030403C44281028440C5050503C44645D
:102FC000544C44000000000000000000000000001D
:102FD00000000000000000000000000000000000F1
:102FE000FFFF0000010100000000000008000000D9
:102FF00000000000FFFF00000101010000000000D0
:103000000800000800080000E803000000000100BC
:1030100008000000E80300000000010008000000B4
:103020001800000000300000FFFFFFFFFFFFFFFF60
:10303000FFFFFFFF30313233343536373839414204
:1030400043444546000000005830000000002020A6
:08305000480600002801000001
:04000005000000C136
:00000001FF
