:020000040000FA
:10000000A8062020A5010000A9010000AB01000006
:1000100000000000000000000000000000000000E0
:10002000000000000000000000000000AD01000022
:100030000000000000000000AF0100009D1A000059
:10004000B3010000B3010000DD1A0000B30100009D
:10005000B3010000B3010000B3010000B3010000D0
:1000600000000000B3010000B30100000000000028
:1000700000000000111B0000B3010000B3010000EC
:10008000A91A0000B3010000B3010000B301000091
:10009000B3010000B30100000000000000000000F8
:1000A000B3010000B30100000000000000000000E8
:1000B000B301000000000000B3010000B301000024
:1000C00000F002F800F042F812A030C808382418F6
:1000D0002D18AC4201D100F039F80FCCA246AB4646
:1000E0000CA730CF2D1B083F3F197C427F1E544484
:1000F0002D090426F441641EAC4201D300F026F819
:100100000126334200D0FB1A3343984754465D46DC
:10011000DFE70000FC2300000C24000000000000CA
:100120007047000000000000002300240025002686
:10013000103A01D378C1FBD8520700D330C100D5A3
:100140000B6070471FB51FBD10B510BD00F0D0F992
:100150001146FFF7F7FF01F0B9FD00F0E8F903B42D
:10016000FFF7F2FF03BC00F0EFF9000070B50546A1
:100170000C46164602E00FCC0FC5103E102EFAD2E8
:10018000082E02D303CC03C5083E042E07D301CCAE
:1001900001C5361F03E021782970641C6D1C761E92
:1001A000F9D270BD06480047FEE7FEE7FEE7FEE72E
:1001B000FEE7FEE703480449024A044B704700008B
:1001C000C1000000A8052020A8062020A8052020A6
:1001D000F8B5042A2CD3830712D00B78491C03707E
:1001E000401C521E83070BD00B78491C0370401C27
:1001F000521E830704D00B78491C0370401C521E0A
:100200008B079B0F05D0C91ADF002023DE1B08C90E
:100210000AE0FFF7ABFFF8BD1D4608C9FD401C46CC
:10022000B4402C4310C0121F042AF5D2F308C91A97
:10023000521EF0D40B78491C0370401C521EEAD4A5
:100240000B78491C0370401C012AE4D40978017022
:10025000F8BD01E004C0091F0429FBD28B0701D5BA
:100260000280801CC90700D00270704700290BD0A3
:10027000C30702D00270401C491E022904D3830721
:1002800002D50280801C891EE3E70022EEE70022EF
:10029000DFE70000002203098B4273D3030A8B427D
:1002A00058D3030B8B423CD3030C8B4221D312E077
:1002B00003460B437FD4002243088B4274D30309C7
:1002C0008B425FD3030A8B4244D3030B8B4228D368
:1002D000030C8B420DD30902FF2212BA030C8B428E
:1002E00002D31212090265D0030B8B4219D300E02E
:1002F000090AC30B8B4201D3CB03C01A5241830BB3
:100300008B4201D38B03C01A5241430B8B4201D362
:100310004B03C01A5241030B8B4201D30B03C01A8B
:100320005241C30A8B4201D3CB02C01A5241830A05
:100330008B4201D38B02C01A5241430A8B4201D334
:100340004B02C01A5241030A8B4201D30B02C01A5E
:100350005241CDD2C3098B4201D3CB01C01A5241C5
:1003600083098B4201D38B01C01A524143098B424E
:1003700001D34B01C01A524103098B4201D30B0137
:10038000C01A5241C3088B4201D3CB00C01A52415C
:1003900083088B4201D38B00C01A524143088B4221
:1003A00001D34B00C01A5241411A00D201465241BA
:1003B000104670475DE0CA0F00D04942031000D3D9
:1003C000404253409C46002203098B422DD3030A2E
:1003D0008B4212D38901FC2212BA030A8B420CD33E
:1003E000890192118B4208D3890192118B4204D367
:1003F00089013AD0921100E08909C3098B4201D3E7
:10040000CB01C01A524183098B4201D38B01C01A20
:10041000524143098B4201D34B01C01A5241030997
:100420008B4201D30B01C01A5241C3088B4201D346
:10043000CB00C01A524183088B4201D38B00C01AF3
:100440005241D9D243088B4201D34B00C01A5241CA
:10045000411A00D201465241104663465B1001D357
:100460004042002B00D54942704763465B1000D3E1
:10047000404201B50449002802DC491C084000E064
:100480000846C046C04602BDFFFFFF7F7047704769
:1004900070471F22030C02D10F2200041CD0030E50
:1004A00001D10002083A030F01D10001121F830F8E
:1004B00001D18000921E002801DB4000521ED205AF
:1004C0005118021251181922904004D3491C0028D7
:1004D00001D14908490008467047C10FC90700D03B
:1004E0004042012292071143D3E701218907D0E757
:1004F000754600F025F8AE46050069465346C0082B
:10050000C000854618B020B5FFF754FE60BCB64663
:1005100000260027C0C5C0C5C0C5C0C5C0C5C0C570
:10052000C0C5C0C5403D490849008D46704710B55B
:100530000446C046C0462046FFF711FE10BD00002D
:10054000004870470000202001491820ABBEFEE79C
:10055000260002007047811E091F00BFFCD27047B1
:10056000F0B583B01D4602920746089A0220801A11
:100570005B4BFC18A3689B0613D402280FD0A3681A
:100580009B060ED401280AD0A3689B0609D4002834
:1005900005D0A3689B0604D4001D0328EAD103B04C
:1005A000F0BD019238460E4600F0B6F83846029F7C
:1005B00039462A4600F09AF821684A4A0A407100F2
:1005C000511821606168484A0A4029045118C91D20
:1005D00061602A1A0123110643D00321019D4E1B9D
:1005E00038180F210D02009602E0361D002973D144
:1005F000E16A29422ED1F11E4F424F41A16889077D
:10060000194600D43946002966D1E16A294221D130
:10061000B11E4F424F41A1688907194600D439469F
:10062000002959D1E16A294214D1711E4F424F412C
:10063000A1688907194600D4394600294CD1E16ADE
:10064000294207D177427741A16889071946CCD45E
:100650003946CAE701782161401C521E1106009EEE
:10066000C6D103200199401A02E0001D012933D0B0
:10067000A168490693D5C11E4A424A41A16889072B
:10068000194600D41146002926D1A168490686D50D
:10069000811E4A424A41A1688907194600D4114681
:1006A000002919D1A168490600D478E7411E4A42C1
:1006B0004A41A1688907194600D4114600290BD187
:1006C000A168490600D46AE742424241A16889070D
:1006D0001946CAD41146C8E70020606003B0F0BDD7
:1006E0001012000000F8FFFFF8FF00F010B5002A1C
:1006F0000FD091235B01C3180020DC692405240F6F
:1007000005D00C5C1C60401C8242F6D1104680B2C1
:1007100010BD002080B210BD084A835880210B43D1
:10072000835080180F221202436813400122D20224
:100730009342F7D102688A43026070473812000082
:1007400070B50A780C231A400124240305196E6839
:100750009E43B2186A6049780722114003599343B7
:100760005918015170BD000070B582B00B794A79FB
:10077000002A25D0184A202B02D00524E40100E0ED
:10078000854C8218002B00D18824156C814E354091
:100790002D191564556C35402C1954641468804D1E
:1007A0002C40146054682C4054600024146254623D
:1007B0008F24E443156D25401565556D254055651D
:1007C0006A4613718B79537109680091114600F0E4
:1007D00087F802B070BDC04638180000F0B582B08E
:1007E0006A4A8218019211231C028B7A5B1EDEB2C8
:1007F000022E0AD85BB29B00354DED584923DB0130
:100800001F467743FB18761C02E0022500231E4694
:1008100002190092CC688F2214402C43B50047196E
:100820003120C0013D58954325433D504868019A09
:1008300050600878052834D801252C4684400922C8
:1008400014420DD11222144217D0224ABD18BA58B0
:10085000534E16404C7A214F012C19D13E431FE0D4
:100860004A7A772414401B4ABE584D4A3240121926
:100870006C041619174ABD1812E0164ABD18BA586A
:10088000474E16404A7A012A08D1144A521C06E003
:10089000772214402643FF373E4301E00E4A1643B9
:1008A0002E600022009C2260C01E032801D220205E
:1008B0000343087ABD2101401943019B1868394A56
:1008C00002400A4302201043186002B0F0BDC04647
:1008D000C0220000301800000102020001010200E5
:1008E000F0B52A4A82182A4BC318087920280DD05F
:1008F00000281DD10C68641E5460D56E254C25401F
:100900008835D5661646703688251DE00C68641E4D
:100910005460D46E1F4D2C401F4EA419D466146F22
:100920002C40A4191467012465071C4C16460BE0E3
:100930000C6864085460D66E164C26400525ED01FF
:100940007619D66616467036376827402F433760CB
:10095000D46A134D2C40D462146B2C4014630024D1
:10096000D46414658F24E443D56F2540D5671D6892
:1009700025401D6049790143BD2008401168094B9D
:100980000B40C018801C1060F0BDC0460418000069
:100990008418000024493E0001040000FFFFFFCF3F
:1009A0008888FDFF4000FFCF10B5029CA40000190D
:1009B00011431943014A815010BDC0465018000030
:1009C00092008018014A81507047C04610180000FC
:1009D00010B50122120383180C789C604B78835069
:1009E0008978014A815010BD0C11000010B5112307
:1009F0001B02C418D0001E4B81420CD22068184044
:100A000001231B0403432360032353438801194636
:100A100001F002FB16E020681840130199420AD247
:100A20000123DB0318432060C800510801F0F4FAE9
:100A3000401C400806E02060C800114601F0ECFAB6
:100A4000401C400821690B4A0A40810989B25118AB
:100A500021613F21084062698A4310186061606823
:100A60000121084062688A431018606010BDC046CA
:100A7000FF7FFEFF0000FFFFB0B511221202835876
:100A80000124A34383500B888C781C438B88234319
:100A9000094C1C408358094D1D40631983508B79C4
:100AA000CC791C43097A21437E231940801842687F
:100AB0009A4351184160B0BD18670000E798FDFFE8
:100AC00010B50122120383180C789C60497881507C
:100AD00010BD0000F0B581B03D4B1868C10020206A
:100AE00002468A431968090700D410323949096857
:100AF000090100D408321968C90200D4121D02216C
:100B00001C68640400D40A430124E4031D682540E2
:100B10006B426B41134310241C409206D6170422EB
:100B20009643002C00D0F61E08251D402F07FF1706
:100B3000F7191A409608BA19194000D0D21C240996
:100B4000184040090019EC0800198019490841189B
:100B5000D80704D1002904D10B48008811E0491CB2
:100B6000521D6424624310B201F078FA00B263218E
:100B7000C943884200DC0846642800DB204602495D
:100B8000088000B201B0F0BD600020207047000076
:100B90000F490868C200202090430A68120700D459
:100BA00010300C4A1268120100D408300A68D202D0
:100BB00000D4001D0A68520401D40222104301220D
:100BC000D203096811404A424A410243D0B27047F9
:100BD00080330A4080130A402F49002008602F49C3
:100BE00008602F4908602F4908702F4908702F4965
:100BF00008602F4908602F4908602F4908602F4975
:100C000008602F4908602F4908602F4908602F4964
:100C100008802F4908702F4908602F4908802F4A03
:100C200010804880508088809080C880D0802C4977
:100C300008602C4908602C4908602C4908702C4930
:100C4000087048708870C870087148718871C871E0
:100C5000087248728872C872087348738873C873C0
:100C6000087448748874C8740875224908704870FC
:100C70008870C870087148718871C87108724872AC
:100C80008872C872087348738873C8731A490870E9
:100C90001A4908707047C0467805202018052020A2
:100CA00000052020550520206B05202090052020E0
:100CB00070052020A0052020200520202C052020C4
:100CC0004C0520203C052020440520204005202004
:100CD0004805202050052020240520203005202014
:100CE00094052020740520209C0520203805202014
:100CF000560520207C052020980520208C052020EA
:100D0000014800687047C046F4002020B0B518487C
:100D100018494160FF210906174A13688B430321D4
:100D20008C071B19136000248460072202604803AB
:100D3000244A1060244D2C7024480480080410605C
:100D4000234821462246FFF73BFE224804802248E2
:100D500001222146FFF734FE084804600848046079
:100D600008480460084804602C7008480460B0BD5E
:100D700010E000E0FF7C000020ED00E0EC0020200F
:100D8000F0002020E4002020F8002020E8002020AF
:100D900010B5032041030B4A11600B4900240C706D
:100DA0000A490C8000041060094821462246FFF7DA
:100DB00007FE08480480084801222146FFF700FE8C
:100DC00010BDC046A0120A40FC0020206C05202067
:100DD000000086408E0520200020864080B53F28F8
:100DE00006D8C008C001C74908188021FFF74FFA8C
:100DF00080BDC046F0B583B0002702979C48029999
:100E0000814215D20299491C0291029981420FD266
:100E10000299491C02910299814209D20299491C06
:100E200002910299814203D20299491C0291E6E79C
:100E300002AAAE2050701770B3480090B34D3C2604
:100E40000224284631462346FFF78AFB02AAD52012
:100E500050701770AC480090284631462346FFF783
:100E60007FFB02AA802050701770A7480090284688
:100E700031462346FFF774FB02AAA8205070177072
:100E8000A1480090284631462346FFF769FB02AA95
:100E90003F20507017709C480090284631462346EA
:100EA000FFF75EFB02AAD32050701770964800909F
:100EB000284631462346FFF753FB02AA57701770A6
:100EC00091480090284631462346FFF749FB02AA85
:100ED00040200190507017708B4800902846314692
:100EE0002346FFF73DFB02AA8D20507017708648FD
:100EF0000090284631462346FFF732FB02AA142011
:100F00005070177080480090284631462346FFF7FE
:100F100027FB02AA2020507017707B4800902846BB
:100F200031462346FFF71CFB02AA5770177076481C
:100F30000090284631462346FFF712FB02AAA12063
:100F40005070177070480090284631462346FFF7CE
:100F500007FB02AAC820507017706B480090284603
:100F600031462346FFF7FCFA02AADA2050701770C8
:100F700065480090284631462346FFF7F1FA02AA59
:100F80001220507017706048009028463146234662
:100F9000FFF7E6FA02AA8120507017705A480090B5
:100FA000284631462346FFF7DBFA02AACF205070CD
:100FB000177055480090284631462346FFF7D0FA6F
:100FC00002AAD920507017704F4800902846314629
:100FD0002346FFF7C5FA02AAF120507017704A485D
:100FE0000090284631462346FFF7BAFA02AADB20D2
:100FF0005070177044480090284631462346FFF74A
:10100000AFFA02AA0198507017703F480090284626
:1010100031462346FFF7A4FA02AAA42050701770A5
:1010200039480090284631462346FFF799FA02AA2C
:10103000A620507017703448009028463146234649
:10104000FFF78EFA02AAAF20507017702E4800905A
:10105000284631462346FFF783FA0124A102294896
:10106000FFF715F900F006F8204603B0F0BDC046C2
:1010700010270000F0B587B02149402008700026F5
:10108000204D082001960290039504AA019D157039
:101090003046503850701C4800903C2702241B48B2
:1010A00039462346FFF75CFA05AA557015701648B5
:1010B0000090164839462346FFF752FA06AA102038
:1010C00050701570039D1048009010483946234613
:1010D000FFF746FA0A4C601C80222946FFF778F891
:1010E000094800908123094839462246FFF738FA1B
:1010F0000298401E8035761C0028C4D107B0F0BD90
:101100006200202000012020A086010000000F4086
:10111000F0B590B00590782804D8382902D850B29C
:10112000202801DA10B0F0BD203A059E3746763F00
:10113000781E87415C1E601E844130467838451E0B
:10114000A8410F9035467A3D6E1EB541012B0E9396
:1011500001D11E4600E00226D0B2029027400D9732
:101160000F9820400F9025400B46CA08B618D401AE
:10117000059FE419DF480719002004903870059C8A
:101180007F2C26D200247C7005987E2821D0BC704C
:1011900005987C281DD8FC701BD03C7105987A28D6
:1011A00017D87C71002D14D0BC710598782810D800
:1011B000FC710F9800280CD03C720598762808D84E
:1011C0007C720D98002804D0BC720598742800D851
:1011D000FC72062A03D8521C80379642CCD80E984F
:1011E000012800D1D0E002289CD118010190D81C20
:1011F000009001200E908602FF20C701049A0D96F0
:101200000B9703E0039A521C052A8BD00520029904
:101210004843B9490818805C0A9003925000059928
:101220004418601C099001980F90009A04990C943E
:1012300006E0491C0F9840300F90121D0829E1D09C
:101240000A98C840C0074DD00F9D3D40601980B23C
:101250003B46D71E08971F46B0420BD2A54E335CC3
:101260000727089C27400E9CBC400B9F1C4334540E
:101270000C9C0D9E0F98103038402418A7B2931E76
:101280000793B7420CD29B4CE35D06930726079B5E
:101290001E400E9CB4400D9E069B1C43954BDC5596
:1012A000099F7C19A5B2B5420BD2924C635D06939F
:1012B0000726089B33400E9E9E40069B1E436655A4
:1012C0000D9E381880B2B0420B9F0C9C0AD2894EFA
:1012D000345C0725079B2B400E9D9D4025430C9CAD
:1012E00035540D9E491C0A98C840C007A1D00891EA
:1012F00021460F9C20343C40081980B2531EB04256
:101300000CD27C4D2D5C079507271F400E9DBD40DC
:101310000B9F079E3543774E35540D9E0F98303006
:1013200038400D18ADB2B5420CD2724E765D0796BC
:10133000072616400E9FB7400D9E07990F436D4933
:101340004F550B9F09990C19A4B2B44209D2694FA9
:101350003D5D072633400E9E9E402E433E550B9F1B
:101360000D9E081880B2B0420C9C089900D360E72B
:10137000604F3C5C072515400E9EAE4026430C9CFA
:101380003E540B9F0D9E54E70520029A50435A4A43
:101390001018072619463340012214469C400F942A
:1013A000CB1D0193334014469C4002948B1D009347
:1013B000334014469C400E944B1D03933340144617
:1013C0009C400D940B1D0493334014469C400C9498
:1013D000CD1C2B46334014469C400B948C1C23465A
:1013E000334017469F400A974B1C1E40B240C90825
:1013F000C901059E89193F4F79180991D908C9017A
:10140000891979180891E108C90189197918079192
:10141000E908C9018919791806910499C908C9010F
:101420008919791804910399CB08DB019B19F918E4
:1014300003910099CB08DB019B19FD180199CB089A
:10144000DB019B19F91805910423DB4305E071B218
:10145000002948D45B1C00D364E6C6187679F707E8
:101460000CD1B10712D4710717D431071DD4F1067E
:1014700023D4B10629D47106E9D52EE00999CF18F5
:1014800079790F9C21437971B107ECD50899C91876
:101490004F7917434F717107E7D50799C9184F79ED
:1014A0000A9C27434F713107E1D50699C9184F7936
:1014B0000B9C27434F71F106DBD50499C9184F796E
:1014C0000C9C27434F71B106D5D50399C9184F79A4
:1014D0000D9C27434F717106B9D5E9184F790E9CC1
:1014E00027434F71B3E70599C9184E79029C2643EB
:1014F0004E71AFE700012020CC220000F0B589B08A
:101500001E461546019100900F2B00D30F26002E8A
:1015100000D1A5E00A272C462846394600F07CFD7C
:101520004743E91B3027394305AAB218521E1170F0
:10153000012E00D194E00A21FEF7ACFE394305A844
:101540003018801E0170022E00D189E064212846E7
:1015500000F062FD0A21FEF79DFE394305A8301810
:10156000C01E0170032E7BD07D20C100284600F0F4
:1015700053FD0A21FEF78EFE394305A83018001FDF
:101580000170042E6CD04F49284600F045FD0A2119
:10159000FEF780FE394305A83018401F0170052E64
:1015A0005ED04949284600F037FD0A21FEF772FE59
:1015B000394305A83018801F0170062E50D04349CA
:1015C000284600F029FD0A21FEF764FE394305A8EC
:1015D0003018C01F0170072E42D03D49284600F048
:1015E0001BFD0A21FEF756FE394305A830180838BE
:1015F0000170082E34D03749284600F00DFD0A212D
:10160000FEF748FE394305A8301809380170092E45
:1016100026D03149284600F0FFFC384305A971184F
:101620000A3908700A2E1BD005A830180B3807702D
:101630000B2E15D005A830180C3807700C2E0FD0C3
:1016400005A830180D3807700D2E09D005A83018E0
:101650000E3807700E2E03D005A830180F3807700B
:1016600005A80021039181550278002A019F009E60
:1016700026D00E980490012801D0102000E0082008
:1016800002900498012801D00C2400E0062405A84B
:10169000451C04E0681C2A78002A054610D0F0B2E8
:1016A000F9B2D2B2049BFFF733FD3019C1B27A29E7
:1016B00001D9029ABF187A29039EEBD80646E9E7BA
:1016C00009B0F0BD10270000A086010040420F00C5
:1016D0008096980000E1F50500CA9A3BF0B583B00A
:1016E00002931378002B25D00D4606460298012858
:1016F00001D0102000E0082001900298012801D0BC
:101700000C2700E00627541C04E0601C2378002B03
:1017100004460FD0F0B2E9B2DAB2029BFFF7F8FC50
:10172000F619F0B27A2801D901996D187A28ECD906
:101730000026EAE703B0F0BD10B50E4C0E49204676
:10174000FFF746F90D492046FFF748F80C480168B5
:1017500010220A4302600B48016840220A43BF215D
:101760008A43026001200104A54A1160064908600D
:1017700010BDC04600400840BC240000AC2400005E
:101780002850084010E400E00851084010B50E4C05
:101790000E492046FFF71CF90D492046FFF71EF8B9
:1017A0000C48016820220A430260FF2000040A4915
:1017B0000A68824301208305D2180A6090490422F6
:1017C0000A600649086010BD00000940D0240000EE
:1017D000C02400002810094000E400E0081109407E
:1017E000B0B51948821C19490A604A6001225206A4
:1017F0000B6813430B604B6813434B6081234B63AF
:10180000134A9360D36085248C6453619361882369
:101810005365104B80241C601C63032465031D600A
:101820001D6324041C601C6382238B650A4BCB65FB
:101830009C1C5460DB1C13608863C863D066D06353
:101840008867C867B0BDC04681000600048042407A
:1018500084804240A0120A408200040080B51248F1
:101860001249FEF76DFF03204102114802680A4346
:10187000026001210A0203681343036000224261EF
:101880001F224262826B0A4306239A438263072225
:101890001202836B93438363826A0423134383623C
:1018A000826A0A43826280BD00000F40D324000098
:1018B00000120F40B0B582B00D4C0E492046FFF724
:1018C00087F80D492046FEF74FFF002520462946A0
:1018D0002A46FFF775F80095204629462A462B46EA
:1018E000FFF762F8054801210160816002B0B0BDD8
:1018F00000008640D5240000D82400000011864056
:1019000070B582B00E4C0F492046FFF761F80E49C2
:101910002046FEF729FF00260125204631462A46AB
:10192000FFF74EF800952046314632463346FFF722
:101930003BF8064802210160856002B070BDC046D8
:1019400000208640E0240000E424000000318640AE
:101950000D48002101600320C1430C48021F136899
:101960000B401360416801229143416011024268BB
:101970008A434260016830229143016001680F226E
:10198000914301607047C04608030B4004010B40BF
:1019900010B5144C14492046FFF792F8134920461D
:1019A000FFF76AF8E120420211492046FFF71EF8CE
:1019B0001048C16870220A43C26001218A020E4B9E
:1019C0001C6814431C60FF2212020C4B1C689443D9
:1019D000CA03A2181A604A03094B1A6002680A4334
:1019E000026010BD00001040EC240000EE24000056
:1019F0000048E80100111040281010400CE400E0FD
:101A000000E100E080B500F011F8FFF7E9FEFFF714
:101A10009FFFFFF723FFFFF74DFFFFF771FFFFF772
:101A2000B7FFFFF789FEFFF7B1FE80BDF0B581B0CB
:101A300010481149416011484160114B5960114CE7
:101A40006160114D6960114E7160114F79601148EC
:101A500041601149074A1160084A1160196021600C
:101A600029603160396001601020FEF774FD01B01B
:101A7000F0BDC04600080A40030000B100280A403B
:101A800000080F40000886400028864000480840B3
:101A90000008094000081040010000268A4801683B
:101AA000491C01607047C0460948016810220A407D
:101AB00002610BD08448006806490A68821A042A29
:101AC00004D3054A13685B1C136008607047C04666
:101AD00038500840E4002020EC002020094801682C
:101AE00020220A4002610BD07748006806490A6844
:101AF000821A042A04D3054A13685B1C1360086029
:101B00007047C04638100940E8002020F00020202F
:101B1000B0B552480068C0B20B2800D09DE05048D4
:101B2000006850490A68521C0A604F490A784F4BB6
:101B300098540A78521C0F2313400B704C4C217898
:101B4000052900D987E0C0467944097949008F44C6
:101B5000020C1924364BC0B255287ED14648552177
:101B6000017046480170012076E0C1B255295DD16F
:101B7000414855214170022020704048017855317C
:101B80000170B0BD3F4908703B4988700321217046
:101B90003A490A7810180870B0BD364908703F4AB3
:101BA00000211170344AD070344A13781B18137016
:101BB0001138C0B200090E283FD82170B0BD374996
:101BC0000A78EF4B9854131DDBB22B4DE8542B4B86
:101BD0001D7828181870501C087026490978C0B262
:101BE00088423AD3052037E0224909780A1DD2B24B
:101BF000214B9854C0B2214A127882422BD12048FE
:101C00000268521C02601F4800781F4A10701F4A69
:101C1000117008291FD3062811D0022812D00128DC
:101C200019D11C4800F096F91B4811E012490870C0
:101C30000020207011490870B0BD04200CE000F0B5
:101C40004DF908E0EE4800F085F900F09BF91048E6
:101C50000168491C016000202070B0BD20101040B8
:101C600024111040780520208C0520207C052020A0
:101C7000980520206E0520205605202014052020E0
:101C8000180520201C052020550520206B0520204C
:101C90002C0520202405202020052020540520206C
:101CA00009490A680B689B1A83420BD20B689B1A7E
:101CB000834207D20B689B1A834203D20B689B1A9C
:101CC0008342EFD37047C046F40020208AB0FFF76C
:101CD00099FEFFF71BF84B20C5002846FFF7E0FFF1
:101CE000FEF77AFFFFF786F8062600246A4A0127E6
:101CF000304621463B46FFF7F1FC082167A23046FB
:101D00003B46FFF7EBFC102168A230463B46FFF74D
:101D1000E5FCFFF7AFF9C8352846FFF7C1FFFFF72D
:101D200037F8FEF733FF4EE0384621463346FFF7DB
:101D3000EFF910242046FFF751F80298214660A2DF
:101D40003346FFF7CBFC079C12201021002C00D556
:101D50009CE02B220123FFF7DBF900961E201021C7
:101D600005232246FFF7CAFB18273846FFF736F847
:101D700000242046394653A23346FFF7AFFC0096B5
:101D8000099931400598C00F40180699C90F4018AD
:101D90000499C90F40180399C90F40180199C90F38
:101DA0004218122039463346FFF7A8FB2027384651
:101DB000FFF714F82046394643A23346FFF78EFC5E
:101DC000FFF758F92C46FEF79BFF0546001B6428D9
:101DD000F9D3FEF7DDFE0990FEF77CFE07900027A1
:101DE0003846FEF7FBFF0126384639462A4A334675
:101DF000FFF774FC08242046FEF7F0FF02973846F0
:101E000021462EA23346FFF769FC30273120089087
:101E10000998800606903A4600D5089A1220214675
:101E20003346FFF775F90998C00605903A4600D584
:101E3000089A182021463346FFF76AF909980007E7
:101E400004903A4600D5089A1E2021463346FFF7F3
:101E50005FF90998400703903A4600D5089A242074
:101E600021463346FFF754F90998800701903A4616
:101E700000D5089A2A2021463346FFF749F90998E8
:101E8000C0073A4600D14FE7089A4DE72D220123BB
:101E9000FFF73EF9644260E70425000058315832EC
:101EA0005834583558375838000000004D6F746F5B
:101EB000722073746F70706564000000473A000010
:101EC000453A00004E3A000058312058322058342C
:101ED000205835205837205838000000B0B5284D1C
:101EE000287869780902081800B2FEF7F6FA134C50
:101EF000214600F08DF912490860A878E9780902B6
:101F0000081800B2FEF7E9FA214600F081F90D4900
:101F10000860287969790902081800B2FEF7DDFA2D
:101F2000214600F075F90849086008480168491C15
:101F30000160074801210170B0BDC0460AD7233CAB
:101F40009005202070052020A005202000052020DD
:101F5000380520200A490A784B781B029A1802801B
:101F60008A78CB781B029A1842800A794B791B0237
:101F70009A1882808A79C97909028918C1807047C4
:101F800004052020B0B5FEF7BBFE04461B4D2A78A1
:101F900000201B49095E002A16D01A4A1268891AC5
:101FA0000A46C732FF2390339A4200D308461649A7
:101FB0000A68002A1ED00968611A63291AD84843A2
:101FC00012490968081813E01148026851180160A5
:101FD00010490A88521C0A800A88322A0CD30068E9
:101FE000098800F03BF807490860012028700020AC
:101FF0000649086004480460B0BDC046480520207A
:10200000300520203C052020500520204C052020B4
:10201000440520204005202043088B421AD300228B
:1020200003098B4279D3030A8B425ED3030B8B42A5
:1020300042D3030C8B4227D30902FF2212BA030CAE
:102040008B4202D31212090203D0030B8B4233D30B
:102050001AE0D3E0411A8041401C704703460B430D
:1020600071D443088B42F5D3002203098B4254D329
:10207000030A8B4239D3030B8B421DD3030C8B42D3
:1020800002D394466EE0090AC30B8B4201D3CB0303
:10209000C01A5241830B8B4201D38B03C01A5241A9
:1020A000430B8B4201D34B03C01A5241030B8B42AB
:1020B00001D30B03C01A5241C30A8B4201D3CB0296
:1020C000C01A5241830A8B4201D38B02C01A52417B
:1020D000430A8B4201D34B02C01A5241030A8B427E
:1020E00001D30B02C01A5241CDD2C3098B4201D396
:1020F000CB01C01A524183098B4201D38B01C01A14
:10210000524143098B4201D34B01C01A524103098A
:102110008B4201D30B01C01A5241C3088B4201D339
:10212000CB00C01A524183088B4201D38B00C01AE6
:10213000524143088B4201D34B00C01A5241411A0D
:10214000524110007047CA0F00D04942031000D31B
:102150004042534000229C4603098B422DD3030A80
:102160008B4212D38901FC2212BA030A8B420CD390
:10217000890192118B4208D3890192118B4204D3B9
:10218000890137D0921100E08909C3098B4201D33C
:10219000CB01C01A524183098B4201D38B01C01A73
:1021A000524143098B4201D34B01C01A52410309EA
:1021B0008B4201D30B01C01A5241C3088B4201D399
:1021C000CB00C01A524183088B4201D38B00C01A46
:1021D0005241D9D243088B4201D34B00C01A52411D
:1021E000411A00D201465241104663465B1000D3AB
:1021F0004042704763465B1000D3404201B5002166
:10220000004201D0C9430846C046C04602BD000096
:1022100070B5420064414B005C41120E39D01B0E78
:1022200038D0FF2A3CD0FF2B3AD0D2187F3A400258
:102230004902400A490A4518ED0106004E43000ACA
:10224000090A48430104731A4019190C4318990FDD
:1022500004D05B08012149075B1A521CD80904D33A
:10226000401CF50301D19D0607D0FF2A08D2D505F1
:1022700006D0E4072043401970BD0125A843F4E7C8
:10228000002A01DCE00770BD2402FF202043C005C6
:1022900070BD1B0EFF2A03D0FF2B01D0E00770BDDD
:1022A000FF2636064500B54206D84D00B54203D894
:1022B000D218FF2A00D0E7E7004870BD0000C07FB9
:1022C000000000000200000000000000000000000C
:1022D0000000005F00000007000700147F147F1457
:1022E000242A7F2A1223130864623649552250009B
:1022F00005030000001C2241000041221C001408BC
:102300003E081408083E080800503000000808087D
:102310000808006060000020100804023E51494592
:102320003E00427F400042615149462141454B31C8
:102330001814127F1027454545393C4A4949300158
:10234000710905033649494936064949291E0036AF
:102350003600000056360000081422410014141400
:10236000141400412214080201510906324959513E
:102370003E7E1111117E7F494949363E414141223D
:102380007F4141413E7F494949417F090909013E59
:102390004149497A7F0808087F00417F4100204079
:1023A000413F017F081422417F404040407F0204AA
:1023B000027F7F0204087F3E4141413E7F090909B7
:1023C000063E4151215E7F09192946264949493275
:1023D00001017F01013F4040403F1F2040201F3F3F
:1023E0004030403F631408146303047804036151D0
:1023F00049454300007F4100020408102000417F4E
:102400000000040201020440404040400001020478
:102410000020545454787F4844443838444444207D
:10242000384444487F3854545418087E0901020C3B
:102430005252523E7F0804047800447D4000204000
:10244000443D007F1028440000417F40007C047818
:1024500004787C0804047838444444387C14141408
:1024600008081414187C7C080404084854545420A8
:10247000043F4440203C4040207C1C2040201C3C29
:102480004030403C44281028440C5050503C446498
:10249000544C440000000000000000000000000058
:1024A000000000000000000000000000000000002C
:1024B000FFFF000001010000000000000800000014
:1024C00000000000FFFF000001010100000000000B
:1024D0000800000800080000E803000000000100F8
:1024E00008000000E80300000000010008000000F0
:1024F0001800000000300000FFFFFFFFFFFFFFFF9C
:10250000FFFFFFFF47524159204449414700000067
:102510002025000000002020A8060000280100005F
:04000005000000C136
:00000001FF
