:020000040000FA
:10000000780520206D0100007101000073010000DF
:1000100000000000000000000000000000000000E0
:10002000000000000000000000000000750100005A
:10003000000000000000000077010000D91300005C
:100040007B0100007B0100007B0100007B010000C0
:100050007B0100007B0100007B0100007B010000B0
:10006000000000007B0100007B0100000000000098
:10007000000000007B0100007B0100007B0100000C
:100080007B0100007B0100007B0100007B01000080
:100090007B0100007B010000000000000000000068
:1000A0007B0100007B010000000000000000000058
:1000B0007B010000000000007B0100007B010000CC
:1000C00000F002F800F042F812A030C808382418F6
:1000D0002D18AC4201D100F039F80FCCA246AB4646
:1000E0000CA730CF2D1B083F3F197C427F1E544484
:1000F0002D090426F441641EAC4201D300F026F819
:100100000126334200D0FB1A3343984754465D46DC
:10011000DFE70000141800002418000000000000B1
:100120007047000000000000002300240025002686
:10013000103A01D378C1FBD8520700D330C100D5A3
:100140000B6070471FB51FBD10B510BD00F043F91F
:100150001146FFF7F7FF01F05BF900F05BF903B41C
:10016000FFF7F2FF03BC00F061F90000064800470A
:10017000FEE7FEE7FEE7FEE7FEE7FEE70348044989
:10018000024A044B70470000C100000078042020A0
:10019000780520207804202001E004C0091F0429EC
:1001A000FBD28B0701D50280801CC90700D00270EA
:1001B000704700290BD0C30702D00270401C491EB3
:1001C000022904D3830702D50280801C891EE3E73D
:1001D0000022EEE70022DFE7002203098B4273D3FF
:1001E000030A8B4258D3030B8B423CD3030C8B4244
:1001F00021D312E003460B437FD4002243088B42F5
:1002000074D303098B425FD3030A8B4244D3030B9D
:100210008B4228D3030C8B420DD30902FF2212BA62
:10022000030C8B4202D31212090265D0030B8B42DE
:1002300019D300E0090AC30B8B4201D3CB03C01AC8
:100240005241830B8B4201D38B03C01A5241430BA3
:100250008B4201D34B03C01A5241030B8B4201D393
:100260000B03C01A5241C30A8B4201D3CB02C01AFE
:100270005241830A8B4201D38B02C01A5241430A76
:100280008B4201D34B02C01A5241030A8B4201D365
:100290000B02C01A5241CDD2C3098B4201D3CB010C
:1002A000C01A524183098B4201D38B01C01A5241BB
:1002B00043098B4201D34B01C01A524103098B42BF
:1002C00001D30B01C01A5241C3088B4201D3CB00AA
:1002D000C01A524183088B4201D38B00C01A52418D
:1002E00043088B4201D34B00C01A5241411A00D23D
:1002F00001465241104670475DE0CA0F00D04942A6
:10030000031000D3404253409C46002203098B4215
:100310002DD3030A8B4212D38901FC2212BA030A9D
:100320008B420CD3890192118B4208D3890192111F
:100330008B4204D389013AD0921100E08909C309A4
:100340008B4201D3CB01C01A524183098B4201D3A6
:100350008B01C01A524143098B4201D34B01C01A91
:10036000524103098B4201D30B01C01A5241C30809
:100370008B4201D3CB00C01A524183088B4201D378
:100380008B00C01A5241D9D243088B4201D34B0093
:10039000C01A5241411A00D20146524110466346EA
:1003A0005B1001D34042002B00D5494270476346A1
:1003B0005B1000D3404201B50449002802DC491C0F
:1003C000084000E00846C046C04602BDFFFFFF7F70
:1003D000704770477047754600F024F8AE46050038
:1003E00069465346C008C000854618B020B5FFF7DF
:1003F000C5FE60BCB64600260027C0C5C0C5C0C546
:10040000C0C5C0C5C0C5C0C5C0C5403D490849003C
:100410008D46704710B50446C046C0462046FFF7DB
:100420009EFE10BD004870470000202001491820A2
:10043000ABBEFEE7260002007047811E091F00BF09
:10044000FCD27047F0B583B00746089C0220001B21
:10045000384D7D19AE68B60613D402280FD0AE68A9
:10046000B6060ED401280AD0AE68B60609D4002814
:1004700005D0AE68B60604D4001D0328EAD103B047
:10048000F0BD38460294019114461E4600F06EF805
:1004900038462146324600F053F828682649014084
:1004A0000198400008182860686824490140300419
:1004B0000818C01D686003200299401A012102E05B
:1004C000001D012B31D0AA685206D8D5C31E5A424E
:1004D0005A41AB689B070B4600D41346002B24D12E
:1004E000AA685206CBD5831E5A425A41AB689B0775
:1004F0000B4600D41346002B17D1AA685206BED56E
:10050000431E5A425A41AB689B070B4600D4134620
:10051000002B0AD1AA685206B1D542424241AB68CB
:100520009B070B46CCD41346CAE70020686003B093
:10053000F0BDC0461012000000F8FFFFF8FF00F009
:1005400010B5002A0FD091235B01C3180020DC698D
:100550002405240F05D00C5C1C60401C8242F6D19F
:10056000104680B210BD002080B210BD084A8358EA
:1005700080210B43835080180F22120243681340DE
:100580000122D2029342F7D102688A430260704787
:100590003812000070B50A780C231A400124240395
:1005A00005196E689E43B2186A60497807221140A7
:1005B000035993435918015170BD000070B582B0C2
:1005C0000B794A79002A25D0184A202B02D005241D
:1005D000E40100E0444C8218002B00D18824156C03
:1005E000404E35402D191564556C35402C19546416
:1005F00014683F4D2C40146054682C405460002413
:10060000146254628F24E443156D25401565556DC1
:10061000254055656A4613718B79537109680091BD
:10062000114600F005F802B070BDC0463818000051
:10063000F0B52A4A82182A4BC318087920280DD011
:1006400000281DD10C68641E5460D56E254C2540D1
:100650008835D5661646703688251DE00C68641E00
:100660005460D46E1F4D2C401F4EA419D466146FD5
:100670002C40A4191467012465071C4C16460BE096
:100680000C6864085460D66E164C26400525ED01B2
:100690007619D66616467036376827402F4337607E
:1006A000D46A134D2C40D462146B2C401463002484
:1006B000D46414658F24E443D56F2540D5671D6845
:1006C00025401D6049790143BD2008401168094B50
:1006D0000B40C018801C1060F0BDC046041800001C
:1006E0008418000024493E0001040000FFFFFFCFF2
:1006F0008888FDFF4000FFCF10B5029CA4000019C0
:1007000011431943014A815010BDC04650180000E2
:1007100092008018014A81507047C04610180000AE
:1007200010B50122120383180C789C604B7883501B
:100730008978014A815010BD0C1100005048008892
:100740007047C046504800887047C046B0B517484B
:1007500017494160FF210906164A13688B4303219C
:100760008C071B1913600024846007220260480371
:10077000414A1060414D2C704148048008041060CB
:10078000404821462246FFF7C3FF3F4804803F48C8
:1007900001222146FFF7BCFF074804602C70074880
:1007A000006807490C6007490860B0BD10E000E030
:1007B000FF7C000020ED00E0600020200058084091
:1007C0006C0020206400202070B50C4601225503E7
:1007D00093031B49002802D40D600B6102E00D61F8
:1007E0000B60404213045204002C02D40B600A61D7
:1007F00002E00B610A60644282B27D21CE00B24207
:1008000000D33246401E80B250254F28294600D3DF
:1008100011461B4801801B480022FFF779FFA0B258
:10082000B04200D33046611E89B24F2900D305463D
:1008300015480580154801222946FFF769FF70BD5C
:1008400090120A4010B5032041030B4A11600B4976
:1008500000240C700A490C800004106009482146ED
:100860002246FFF755FF0848048008480122214628
:10087000FFF74EFF10BDC046A0120A4070002020B6
:10088000740420200000864076042020002086404A
:1008900080B53F2806D8C008C001C3490818802188
:1008A000FFF798FC80BDC046F0B583B000270297E3
:1008B0009C480299814215D20299491C02910299E1
:1008C00081420FD20299491C02910299814209D2B8
:1008D0000299491C02910299814203D20299491C52
:1008E0000291E6E702AAAE2050701770AF48009060
:1008F000AF4D3C260224284631462346FFF7A2FD91
:1009000002AAD52050701770A8480090284631469A
:100910002346FFF797FD02AA802050701770A34866
:100920000090284631462346FFF78CFD02AAA820F6
:10093000507017709D480090284631462346FFF7B7
:1009400081FD02AA3F2050701770984800902846F9
:1009500031462346FFF776FD02AAD3205070177068
:1009600092480090284631462346FFF76BFD02AAC5
:10097000577017708D480090284631462346FFF780
:1009800061FD02AA402001905070177087480090C6
:10099000284631462346FFF755FD02AA8D205070A8
:1009A000177082480090284631462346FFF74AFDDB
:1009B00002AA1420507017707C48009028463146D7
:1009C0002346FFF73FFD02AA20205070177077489A
:1009D0000090284631462346FFF734FD02AA57709F
:1009E000177072480090284631462346FFF72AFDCB
:1009F00002AAA120507017706C480090284631461A
:100A00002346FFF71FFD02AAC820507017706748E1
:100A10000090284631462346FFF714FD02AADA204B
:100A20005070177061480090284631462346FFF702
:100A300009FD02AA1220507017705C4800902846E9
:100A400031462346FFF7FEFC02AA81205070177042
:100A500056480090284631462346FFF7F3FC02AA89
:100A6000CF205070177051480090284631462346D9
:100A7000FFF7E8FC02AAD920507017704B4800908D
:100A8000284631462346FFF7DDFC02AAF1205070CC
:100A9000177046480090284631462346FFF7D2FC9F
:100AA00002AADB205070177040480090284631465B
:100AB0002346FFF7C7FC02AA0198507017703B4805
:100AC0000090284631462346FFF7BCFC02AAA4202A
:100AD0005070177035480090284631462346FFF77E
:100AE000B1FC02AAA620507017703048009028462A
:100AF00031462346FFF7A6FC02AAAF2050701770BC
:100B00002A480090284631462346FFF79BFC0124E3
:100B1000A1022548FFF75EFB00F006F8204603B06F
:100B2000F0BDC04610270000F0B589B000201E4F70
:100B30001E4D1F4C049005AA049911700290503864
:100B4000507000953C2103910226204601963346C1
:100B5000FFF778FC06AA04985070107000952046A4
:100B600003993346FFF76EFC07AA10205070049ECD
:100B70001670009520460399019BFFF763FCB85D52
:100B800008AA50704020107000953C210223204696
:100B9000FFF758FC761C802EF1D180370298401C5C
:100BA0000828C8D109B0F0BD74002020A08601003B
:100BB00000000F40F0B590B00590782804D838298F
:100BC00002D850B2202801DA10B0F0BD203A059EBC
:100BD0003746763F781E87415C1E601E8441304652
:100BE0007838451EA8410F9035467A3D6E1EB541B6
:100BF000012B0E9301D11E4600E00226D0B20290D6
:100C000027400D970F9820400F9025400B46CA08AB
:100C1000B618D401059FE419DF4807190020049095
:100C20003870059C7F2C26D200247C7005987E2885
:100C300021D0BC7005987C281DD8FC701BD03C715D
:100C400005987A2817D87C71002D14D0BC710598AE
:100C5000782810D8FC710F9800280CD03C720598A9
:100C6000762808D87C720D98002804D0BC720598AC
:100C7000742800D8FC72062A03D8521C803796428A
:100C8000CCD80E98012800D1D0E002289CD11801C0
:100C90000190D81C009001200E908602FF20C70111
:100CA000049A0D960B9703E0039A521C052A8BD0E9
:100CB000052002994843B9490818805C0A900392BC
:100CC000500005994418601C099001980F90009AF3
:100CD00004990C9406E0491C0F9840300F90121DA7
:100CE0000829E1D00A98C840C0074DD00F9D3D406B
:100CF000601980B23B46D71E08971F46B0420BD200
:100D0000A54E335C0727089C27400E9CBC400B9FD8
:100D10001C4334540C9C0D9E0F98103038402418FE
:100D2000A7B2931E0793B7420CD29B4CE35D069388
:100D30000726079B1E400E9CB4400D9E069B1C433D
:100D4000954BDC55099F7C19A5B2B5420BD2924C4C
:100D5000635D06930726089B33400E9E9E40069BCC
:100D60001E4366550D9E381880B2B0420B9F0C9CF6
:100D70000AD2894E345C0725079B2B400E9D9D406F
:100D800025430C9C35540D9E491C0A98C840C00749
:100D9000A1D0089121460F9C20343C40081980B214
:100DA000531EB0420CD27C4D2D5C079507271F4087
:100DB0000E9DBD400B9F079E3543774E35540D9ECB
:100DC0000F98303038400D18ADB2B5420CD2724E8B
:100DD000765D0796072616400E9FB7400D9E079931
:100DE0000F436D494F550B9F09990C19A4B2B4429A
:100DF00009D2694F3D5D072633400E9E9E402E432B
:100E00003E550B9F0D9E081880B2B0420C9C08996D
:100E100000D360E7604F3C5C072515400E9EAE4056
:100E200026430C9C3E540B9F0D9E54E70520029ACE
:100E300050435A4A101807261946334001221446D7
:100E40009C400F94CB1D0193334014469C40029468
:100E50008B1D0093334014469C400E944B1D03930E
:100E6000334014469C400D940B1D049333401446AC
:100E70009C400C94CD1C2B46334014469C400B9454
:100E80008C1C2346334017469F400A974B1C1E403C
:100E9000B240C908C901059E89193F4F79180991C7
:100EA000D908C901891979180891E108C901891976
:100EB00079180791E908C9018919791806910499E7
:100EC000C908C9018919791804910399CB08DB0174
:100ED0009B19F91803910099CB08DB019B19FD18A8
:100EE0000199CB08DB019B19F91805910423DB4319
:100EF00005E071B2002948D45B1C00D364E6C61833
:100F00007679F7070CD1B10712D4710717D43107DE
:100F10001DD4F10623D4B10629D47106E9D52EE0FB
:100F20000999CF1879790F9C21437971B107ECD5D4
:100F30000899C9184F7917434F717107E7D5079979
:100F4000C9184F790A9C27434F713107E1D506999B
:100F5000C9184F790B9C27434F71F106DBD50499D3
:100F6000C9184F790C9C27434F71B106D5D5039909
:100F7000C9184F790D9C27434F717106B9D5E918EF
:100F80004F790E9C27434F71B3E70599C9184E79E5
:100F9000029C26434E71AFE7740020201217000018
:100FA000F0B589B01E461546019100900F2B00D375
:100FB0000F26002E00D1A5E00A272C4628463946E8
:100FC00000F0ACFA4743E91B3027394305AAB218B1
:100FD000521E1170012E00D194E00A21FFF7FCF897
:100FE000394305A83018801E0170022E00D189E017
:100FF0006421284600F092FA0A21FFF7EDF8394300
:1010000005A83018C01E0170032E7BD07D20C100C2
:10101000284600F083FA0A21FFF7DEF8394305A8D5
:101020003018001F0170042E6CD04F49284600F084
:1010300075FA0A21FFF7D0F8394305A83018401F88
:101040000170052E5ED04949284600F067FA0A2152
:10105000FFF7C2F8394305A83018801F0170062E2B
:1010600050D04349284600F059FA0A21FFF7B4F856
:10107000394305A83018C01F0170072E42D03D49E2
:10108000284600F04BFA0A21FFF7A6F8394305A8D5
:10109000301808380170082E34D03749284600F03F
:1010A0003DFA0A21FFF798F8394305A830180938A6
:1010B0000170092E26D03149284600F02FFA384316
:1010C00005A971180A3908700A2E1BD005A8301816
:1010D0000B3807700B2E15D005A830180C38077088
:1010E0000C2E0FD005A830180D3807700D2E09D022
:1010F00005A830180E3807700E2E03D005A830183A
:101100000F38077005A80021039181550278002A45
:10111000019F009E26D00E980490012801D0102037
:1011200000E0082002900498012801D00C2400E07F
:10113000062405A8451C04E0681C2A78002A0546F8
:1011400010D0F0B2F9B2D2B2049BFFF733FD3019E0
:10115000C1B27A2901D9029ABF187A29039EEBD825
:101160000646E9E709B0F0BD10270000A08601009F
:1011700040420F008096980000E1F50500CA9A3BB6
:10118000F0B583B002931378002B25D00D460646A8
:101190000298012801D0102000E008200190029858
:1011A000012801D00C2700E00627541C04E0601C35
:1011B0002378002B04460FD0F0B2E9B2DAB2029BDA
:1011C000FFF7F8FCF619F0B27A2801D901996D18E9
:1011D0007A28ECD90026EAE703B0F0BD114812499D
:1011E000016041600121490602680A4302604268C9
:1011F0000A434260812141630C4A1160516085239A
:101200008364D16011618820D06409488021016025
:10121000016303214A030260026309040160016360
:101220007047C04604804240830006008C804240E4
:10123000A0120A4080B512481249FFF7ABF903200B
:101240004102114802680A43026001210A02036850
:1012500013430360002242611F224262826B0A43F1
:1012600006239A43826307221202836B93438363AC
:10127000826A042313438362826A0A43826280BDC6
:1012800000000F40F218000000120F40B0B582B00D
:101290000D4C0E492046FFF743FA0D492046FFF753
:1012A0008DF90025204629462A46FFF731FA009598
:1012B000204629462A462B46FFF71EFA05480121FB
:1012C0000160816002B0B0BD00008640F4180000EB
:1012D000F81800000011864070B582B00E4C0F491E
:1012E0002046FFF71DFA0E492046FFF767F9002652
:1012F0000125204631462A46FFF70AFA0095204686
:10130000314632463346FFF7F7F9064802210160BD
:10131000856002B070BDC046002086400019000004
:1013200004190000003186400D48002101600320AF
:10133000C1430C48021F13680B401360416801222F
:1013400091434160110242688A4342600168302241
:101350009143016001680F22914301607047C046CC
:1013600008030B4004010B4080B500F00BF8FFF7B9
:1013700035FFFFF7D9FFFFF75DFFFFF787FFFFF7A7
:10138000ABFF80BD70B50C480C4941600C4A516000
:101390000C4B59600C4C61600C4D69600C4E7160D7
:1013A0000C490160116019602160296031601020D2
:1013B000FFF743F870BDC04600080A40030000B1C3
:1013C00000280A4000080F40000886400028864098
:1013D00000480840010000260C480168491C0160D3
:1013E0007047C04609490A680B689B1A83420BD2B2
:1013F0000B689B1A834207D20B689B1A834203D265
:101400000B689B1A8342EFD37047C04668002020C8
:1014100086B0FFF7A9FFFFF799F96420FFF7E2FF15
:10142000FFF742FA002734A2012438463946234602
:10143000FFF7A6FEFFF778FB3248802101607D2090
:10144000049080000146FFF7BFF910262E4A384667
:1014500031462346FFF794FEFFF770F902460094E9
:101460000C200590042531462B460295FFF798FD88
:10147000FFF768F9024600943620039031462B4668
:10148000FFF78EFD18252846FFF702FA1FA20197E5
:10149000384629462346FFF773FEFFF745FB0498BD
:1014A0000001FFF79FFFFFF7CDF9FFF73DFB38463F
:1014B0003146154A2346FFF763FEFFF73FF9024620
:1014C000009405983146029F3B46FFF769FDFFF700
:1014D00039F902460094039831463B46FFF760FD18
:1014E0002846FFF7D5F90BA2019829462346FFF7B6
:1014F00047FEFFF719FBFEE748656C6C6F2C205A1E
:101500004D21000090120A401819000052554E4E0D
:10151000494E470053544F500000000043088B428F
:101520001AD3002203098B4279D3030A8B425ED37C
:10153000030B8B4242D3030C8B4227D30902FF22B9
:1015400012BA030C8B4202D31212090203D0030B0E
:101550008B4233D31AE0D3E0411A8041401C7047DC
:1015600003460B4371D443088B42F5D30022030991
:101570008B4254D3030A8B4239D3030B8B421DD3C6
:10158000030C8B4202D394466EE0090AC30B8B42D4
:1015900001D3CB03C01A5241830B8B4201D38B037F
:1015A000C01A5241430B8B4201D34B03C01A524124
:1015B000030B8B4201D30B03C01A5241C30A8B4267
:1015C00001D3CB02C01A5241830A8B4201D38B0252
:1015D000C01A5241430A8B4201D34B02C01A5241F6
:1015E000030A8B4201D30B02C01A5241CDD2C30968
:1015F0008B4201D3CB01C01A524183098B4201D3E4
:101600008B01C01A524143098B4201D34B01C01ACE
:10161000524103098B4201D30B01C01A5241C30846
:101620008B4201D3CB00C01A524183088B4201D3B5
:101630008B00C01A524143088B4201D34B00C01AA1
:101640005241411A524110007047CA0F00D049421E
:10165000031000D34042534000229C4603098B42B2
:101660002DD3030A8B4212D38901FC2212BA030A3A
:101670008B420CD3890192118B4208D389019211BC
:101680008B4204D3890137D0921100E08909C30944
:101690008B4201D3CB01C01A524183098B4201D343
:1016A0008B01C01A524143098B4201D34B01C01A2E
:1016B000524103098B4201D30B01C01A5241C308A6
:1016C0008B4201D3CB00C01A524183088B4201D315
:1016D0008B00C01A5241D9D243088B4201D34B0030
:1016E000C01A5241411A00D2014652411046634687
:1016F0005B1000D34042704763465B1000D340420A
:1017000001B50021004201D0C9430846C046C04689
:1017100002BD000000000000005F0000000700079D
:1017200000147F147F14242A7F2A12231308646272
:1017300036495522500005030000001C22410000DC
:1017400041221C0014083E081408083E08080050F6
:101750003000000808080808006060000020100839
:1017600004023E5149453E00427F400042615149DA
:10177000462141454B311814127F10274545453904
:101780003C4A494930017109050336494949360641
:101790004949291E0036360000005636000008145C
:1017A000224100141414141400412214080201519F
:1017B0000906324959513E7E1111117E7F4949492E
:1017C000363E414141227F4141413E7F49494941A5
:1017D0007F090909013E4149497A7F0808087F00CD
:1017E000417F41002040413F017F081422417F405A
:1017F0004040407F0204027F7F0204087F3E414157
:10180000413E7F090909063E4151215E7F091929A0
:1018100046264949493201017F01013F4040403F8E
:101820001F2040201F3F4030403F631408146303D3
:1018300004780403615149454300007F41000204DC
:1018400008102000417F00000402010204404040D3
:101850004040000102040020545454787F4844441E
:10186000383844444420384444487F385454541849
:10187000087E0901020C5252523E7F08040478008F
:10188000447D40002040443D007F1028440000413A
:101890007F40007C047804787C0804047838444451
:1018A00044387C14141408081414187C7C080404AC
:1018B000084854545420043F4440203C4040207C7D
:1018C0001C2040201C3C4030403C44281028440C44
:1018D0005050503C4464544C440000000000000050
:1018E00000000000000000000000000000000000F8
:1018F0000000080008000000E803000000000100EC
:1019000008000000E803000000000100FFFFFFFFE7
:10191000FFFFFFFFFFFFFFFF4C3A20202020523A3D
:1019200020202020000000003819000000002020A6
:08193000780500002801000009
:04000005000000C136
:00000001FF
