:020000040000FA
:10000000A00520206D0100007101000073010000B7
:1000100000000000000000000000000000000000E0
:10002000000000000000000000000000750100005A
:10003000000000000000000077010000F51600003D
:100040007B0100007B010000191700007B0100000C
:100050007B0100007B0100007B0100007B010000B0
:10006000000000007B0100007B0100000000000098
:1000700000000000311700007B0100007B01000040
:10008000011700007B0100007B0100007B010000E4
:100090007B0100007B010000000000000000000068
:1000A0007B0100007B010000000000000000000058
:1000B0007B010000000000007B0100007B010000CC
:1000C00000F002F800F042F812A030C808382418F6
:1000D0002D18AC4201D100F039F80FCCA246AB4646
:1000E0000CA730CF2D1B083F3F197C427F1E544484
:1000F0002D090426F441641EAC4201D300F026F819
:100100000126334200D0FB1A3343984754465D46DC
:10011000DFE70000441D0000541D00000000000047
:100120007047000000000000002300240025002686
:10013000103A01D378C1FBD8520700D330C100D5A3
:100140000B6070471FB51FBD10B510BD00F072F9F0
:100150001146FFF7F7FF01F09DFB00F08AF903B4A9
:10016000FFF7F2FF03BC00F091F9000006480047DA
:10017000FEE7FEE7FEE7FEE7FEE7FEE70348044989
:10018000024A044B70470000C1000000A004202078
:10019000A0052020A004202001E004C0091F04299C
:1001A000FBD28B0701D50280801CC90700D00270EA
:1001B000704700290BD0C30702D00270401C491EB3
:1001C000022904D3830702D50280801C891EE3E73D
:1001D0000022EEE70022DFE7002203098B4273D3FF
:1001E000030A8B4258D3030B8B423CD3030C8B4244
:1001F00021D312E003460B437FD4002243088B42F5
:1002000074D303098B425FD3030A8B4244D3030B9D
:100210008B4228D3030C8B420DD30902FF2212BA62
:10022000030C8B4202D31212090265D0030B8B42DE
:1002300019D300E0090AC30B8B4201D3CB03C01AC8
:100240005241830B8B4201D38B03C01A5241430BA3
:100250008B4201D34B03C01A5241030B8B4201D393
:100260000B03C01A5241C30A8B4201D3CB02C01AFE
:100270005241830A8B4201D38B02C01A5241430A76
:100280008B4201D34B02C01A5241030A8B4201D365
:100290000B02C01A5241CDD2C3098B4201D3CB010C
:1002A000C01A524183098B4201D38B01C01A5241BB
:1002B00043098B4201D34B01C01A524103098B42BF
:1002C00001D30B01C01A5241C3088B4201D3CB00AA
:1002D000C01A524183088B4201D38B00C01A52418D
:1002E00043088B4201D34B00C01A5241411A00D23D
:1002F00001465241104670475DE0CA0F00D04942A6
:10030000031000D3404253409C46002203098B4215
:100310002DD3030A8B4212D38901FC2212BA030A9D
:100320008B420CD3890192118B4208D3890192111F
:100330008B4204D389013AD0921100E08909C309A4
:100340008B4201D3CB01C01A524183098B4201D3A6
:100350008B01C01A524143098B4201D34B01C01A91
:10036000524103098B4201D30B01C01A5241C30809
:100370008B4201D3CB00C01A524183088B4201D378
:100380008B00C01A5241D9D243088B4201D34B0093
:10039000C01A5241411A00D20146524110466346EA
:1003A0005B1001D34042002B00D5494270476346A1
:1003B0005B1000D3404201B50449002802DC491C0F
:1003C000084000E00846C046C04602BDFFFFFF7F70
:1003D0007047704770471F22030C02D10F220004A0
:1003E0001CD0030E01D10002083A030F01D1000115
:1003F000121F830F01D18000921E002801DB4000F4
:10040000521ED2055118021251181922904004D3DD
:10041000491C002801D14908490008467047C10F0E
:10042000C90700D04042012292071143D3E70121BE
:100430008907D0E7754600F025F8AE460500694605
:100440005346C008C000854618B020B5FFF796FE99
:1004500060BCB64600260027C0C5C0C5C0C5C0C523
:10046000C0C5C0C5C0C5C0C5403D490849008D468E
:10047000704710B50446C046C0462046FFF76FFEE1
:1004800010BD0000004870470000202001491820DE
:10049000ABBEFEE7260002007047811E091F00BFA9
:1004A000FCD27047F0B583B00746089C0220001BC1
:1004B000384D7D19AE68B60613D402280FD0AE6849
:1004C000B6060ED401280AD0AE68B60609D40028B4
:1004D00005D0AE68B60604D4001D0328EAD103B0E7
:1004E000F0BD38460294019114461E4600F06EF8A5
:1004F00038462146324600F053F828682649014024
:1005000001984000081828606868244901403004B8
:100510000818C01D686003200299401A012102E0FA
:10052000001D012B31D0AA685206D8D5C31E5A42ED
:100530005A41AB689B070B4600D41346002B24D1CD
:10054000AA685206CBD5831E5A425A41AB689B0714
:100550000B4600D41346002B17D1AA685206BED50D
:10056000431E5A425A41AB689B070B4600D41346C0
:10057000002B0AD1AA685206B1D542424241AB686B
:100580009B070B46CCD41346CAE70020686003B033
:10059000F0BDC0461012000000F8FFFFF8FF00F0A9
:1005A00010B5002A0FD091235B01C3180020DC692D
:1005B0002405240F05D00C5C1C60401C8242F6D13F
:1005C000104680B210BD002080B210BD084A83588A
:1005D00080210B43835080180F221202436813407E
:1005E0000122D2029342F7D102688A430260704727
:1005F0003812000070B50A780C231A400124240335
:1006000005196E689E43B2186A6049780722114046
:10061000035993435918015170BD000070B582B061
:100620000B794A79002A25D0184A202B02D00524BC
:10063000E40100E0854C8218002B00D18824156C61
:10064000814E35402D191564556C35402C19546474
:100650001468804D2C40146054682C405460002471
:10066000146254628F24E443156D25401565556D61
:10067000254055656A4613718B795371096800915D
:10068000114600F087F802B070BDC046381800006F
:10069000F0B582B06A4A8218019211231C028B7A4B
:1006A0005B1EDEB2022E0AD85BB29B00354DED58C0
:1006B0004923DB011F467743FB18761C02E0022525
:1006C00000231E4602190092CC688F2214402C434E
:1006D000B50047193120C0013D58954325433D5091
:1006E0004868019A50600878052834D801252C46BE
:1006F0008440092214420DD11222144217D0224AFA
:10070000BD18BA58534E16404C7A214F012C19D1BE
:100710003E431FE04A7A772414401B4ABE584D4A94
:10072000324012196C041619174ABD1812E0164A05
:10073000BD18BA58474E16404A7A012A08D1144AC1
:10074000521C06E0772214402643FF373E4301E067
:100750000E4A16432E600022009C2260C01E032811
:1007600001D220200343087ABD2101401943019B97
:100770001868394A02400A4302201043186002B048
:10078000F0BDC046141C0000301800000102020039
:1007900001010200F0B52A4A82182A4BC3180879D1
:1007A00020280DD000281DD10C68641E5460D56E21
:1007B000254C25408835D5661646703688251DE0BF
:1007C0000C68641E5460D46E1F4D2C401F4EA4193B
:1007D000D466146F2C40A4191467012465071C4CBF
:1007E00016460BE00C6864085460D66E164C264022
:1007F0000525ED017619D66616467036376827400E
:100800002F433760D46A134D2C40D462146B2C40B4
:1008100014630024D46414658F24E443D56F254009
:10082000D5671D6825401D6049790143BD200840FA
:100830001168094B0B40C018801C1060F0BDC04609
:10084000041800008418000024493E000104000040
:10085000FFFFFFCF8888FDFF4000FFCF10B5029C4F
:10086000A400001911431943014A815010BDC0462C
:100870005018000092008018014A81507047C0460D
:100880001018000010B50122120383180C789C6028
:100890004B7883508978014A815010BD0C110000BB
:1008A00010B511231B02C418D0001E4B81420CD27C
:1008B0002068184001231B04034323600323534390
:1008C0008801194601F052F816E02068184013011B
:1008D00099420AD20123DB0318432060C800510863
:1008E00001F044F8401C400806E02060C8001146B2
:1008F00001F03CF8401C400821690B4A0A4081097C
:1009000089B2511821613F21084062698A43101859
:10091000606160680121084062688A431018606065
:1009200010BDC046FF7FFEFF0000FFFFB0B51122E3
:10093000120283580124A34383500B888C781C43F4
:100940008B882343094C1C408358094D1D40631973
:1009500083508B79CC791C43097A21437E2319403B
:10096000801842689A4351184160B0BD1867000072
:10097000E798FDFF10B50122120383180C789C60E4
:100980004978815010BD00002B4800687047C04670
:10099000294800682A490968081840087047C04675
:1009A000274800687047C04623480021016023485B
:1009B0000160234801607047B0B516481649416090
:1009C000FF210906154A13688B4303218C071B1965
:1009D000136000248460072202604803104A1060FC
:1009E000104D2C7010480480080410600F482146F8
:1009F0002246FFF73FFF0E4804800E4801222146A1
:100A0000FFF738FF0C4804600C4804602C700C4859
:100A10000460B0BD10E000E0FF7C000020ED00E0CD
:100A2000A0120A4070002020880420200000864088
:100A30009004202000208640600020206C002020B0
:100A40006400202080B53F2806D8C008C001C349F3
:100A500008188021FFF7BEFB80BDC046F0B583B00B
:100A6000002702979C480299814215D20299491C9D
:100A70000291029981420FD20299491C0291029976
:100A8000814209D20299491C02910299814203D202
:100A90000299491C0291E6E702AAAE205070177035
:100AA000AF480090AF4D3C260224284631462346ED
:100AB000FFF7F8FC02AAD52050701770A8480090E4
:100AC000284631462346FFF7EDFC02AA80205070ED
:100AD0001770A3480090284631462346FFF7E2FCF2
:100AE00002AAA820507017709D48009028463146F1
:100AF0002346FFF7D7FC02AA3F2050701770984892
:100B00000090284631462346FFF7CCFC02AAD320AA
:100B10005070177092480090284631462346FFF7E0
:100B2000C1FC02AA577017708D48009028463146C4
:100B30002346FFF7B7FC02AA4020019050701770BF
:100B400087480090284631462346FFF7ABFC02AAAF
:100B50008D205070177082480090284631462346F9
:100B6000FFF7A0FC02AA1420507017707C48009078
:100B7000284631462346FFF795FC02AA20205070F4
:100B8000177077480090284631462346FFF78AFCC5
:100B900002AA5770177072480090284631462346C3
:100BA000FFF780FC02AAA120507017706C480090DB
:100BB000284631462346FFF775FC02AAC82050702C
:100BC000177067480090284631462346FFF76AFCB5
:100BD00002AADA205070177061480090284631460A
:100BE0002346FFF75FFC02AA1220507017705C4882
:100BF0000090284631462346FFF754FC02AA812084
:100C00005070177056480090284631462346FFF72B
:100C100049FC02AACF205070177051480090284616
:100C200031462346FFF73EFC02AAD92050701770C8
:100C30004B480090284631462346FFF733FC02AA72
:100C4000F1205070177046480090284631462346E0
:100C5000FFF728FC02AADB20507017704048009074
:100C6000284631462346FFF71DFC02AA0198507022
:100C700017703B480090284631462346FFF712FC88
:100C800002AAA420507017703548009028463146BB
:100C90002346FFF707FC02AAA620507017703048C1
:100CA0000090284631462346FFF7FCFB02AAAF20FE
:100CB000507017702A480090284631462346FFF7A7
:100CC000F1FB0124A1022548FFF784FA00F006F8A1
:100CD000204603B0F0BDC04610270000F0B589B033
:100CE00000201E4F1E4D1F4C049005AA0499117040
:100CF00002905038507000953C2103910226204606
:100D000001963346FFF7CEFB06AA04985070107088
:100D10000095204603993346FFF7C4FB07AA10202D
:100D20005070049E1670009520460399019BFFF7B2
:100D3000B9FBB85D08AA50704020107000953C21A6
:100D400002232046FFF7AEFB761C802EF1D18037C0
:100D50000298401C0828C8D109B0F0BD74002020BA
:100D6000A086010000000F40F0B590B005907828F3
:100D700004D8382902D850B2202801DA10B0F0BDCA
:100D8000203A059E3746763F781E87415C1E601EDE
:100D9000844130467838451EA8410F9035467A3D4B
:100DA0006E1EB541012B0E9301D11E4600E00226B6
:100DB000D0B2029027400D970F9820400F90254009
:100DC0000B46CA08B618D401059FE419DF48071975
:100DD000002004903870059C7F2C26D200247C7063
:100DE00005987E2821D0BC7005987C281DD8FC7001
:100DF0001BD03C7105987A2817D87C71002D14D02F
:100E0000BC710598782810D8FC710F9800280CD078
:100E10003C720598762808D87C720D98002804D07A
:100E2000BC720598742800D8FC72062A03D8521C9C
:100E300080379642CCD80E98012800D1D0E0022805
:100E40009CD118010190D81C009001200E908602C0
:100E5000FF20C701049A0D960B9703E0039A521CDA
:100E6000052A8BD0052002994843B9490818805CAF
:100E70000A900392500005994418601C099001984B
:100E80000F90009A04990C9406E0491C0F9840308A
:100E90000F90121D0829E1D00A98C840C0074DD014
:100EA0000F9D3D40601980B23B46D71E08971F46F4
:100EB000B0420BD2A54E335C0727089C27400E9CFE
:100EC000BC400B9F1C4334540C9C0D9E0F9810305B
:100ED00038402418A7B2931E0793B7420CD29B4CFC
:100EE000E35D06930726079B1E400E9CB4400D9EB3
:100EF000069B1C43954BDC55099F7C19A5B2B54256
:100F00000BD2924C635D06930726089B33400E9EDE
:100F10009E40069B1E4366550D9E381880B2B04217
:100F20000B9F0C9C0AD2894E345C0725079B2B40F3
:100F30000E9D9D4025430C9C35540D9E491C0A98DE
:100F4000C840C007A1D0089121460F9C20343C40E6
:100F5000081980B2531EB0420CD27C4D2D5C07950F
:100F600007271F400E9DBD400B9F079E3543774EC0
:100F700035540D9E0F98303038400D18ADB2B54243
:100F80000CD2724E765D0796072616400E9FB7402C
:100F90000D9E07990F436D494F550B9F09990C19E9
:100FA000A4B2B44209D2694F3D5D072633400E9E7C
:100FB0009E402E433E550B9F0D9E081880B2B042B6
:100FC0000C9C089900D360E7604F3C5C07251540F6
:100FD0000E9EAE4026430C9C3E540B9F0D9E54E744
:100FE0000520029A50435A4A1018072619463340E2
:100FF000012214469C400F94CB1D019333401446AC
:101000009C4002948B1D0093334014469C400E94E8
:101010004B1D0393334014469C400D940B1D0493C9
:10102000334014469C400C94CD1C2B463340144650
:101030009C400B948C1C2346334017469F400A97D4
:101040004B1C1E40B240C908C901059E89193F4F7B
:1010500079180991D908C901891979180891E10805
:10106000C901891979180791E908C90189197918FD
:1010700006910499C908C90189197918049103993D
:10108000CB08DB019B19F91803910099CB08DB0110
:101090009B19FD180199CB08DB019B19F9180591E3
:1010A0000423DB4305E071B2002948D45B1C00D364
:1010B00064E6C6187679F7070CD1B10712D4710728
:1010C00017D431071DD4F10623D4B10629D47106F3
:1010D000E9D52EE00999CF1879790F9C21437971D0
:1010E000B107ECD50899C9184F7917434F717107AB
:1010F000E7D50799C9184F790A9C27434F713107E3
:10110000E1D50699C9184F790B9C27434F71F10619
:10111000DBD50499C9184F790C9C27434F71B10650
:10112000D5D50399C9184F790D9C27434F71710686
:10113000B9D5E9184F790E9C27434F71B3E705994C
:10114000C9184E79029C26434E71AFE774002020E7
:10115000201C0000F0B589B01E4615460191009094
:101160000F2B00D30F26002E00D1A5E00A272C4616
:101170002846394600F0FAFB4743E91B302739433C
:1011800005AAB218521E1170012E00D194E00A2156
:10119000FFF722F8394305A83018801E0170022E8F
:1011A00000D189E06421284600F0E0FB0A21FFF726
:1011B00013F8394305A83018C01E0170032E7BD0E8
:1011C0007D20C100284600F0D1FB0A21FFF704F87A
:1011D000394305A83018001F0170042E6CD04F4908
:1011E000284600F0C3FB0A21FEF7F6FF394305A8A5
:1011F0003018401F0170052E5ED04949284600F086
:10120000B5FB0A21FEF7E8FF394305A83018801F17
:101210000170062E50D04349284600F0A7FB0A2152
:10122000FEF7DAFF394305A83018C01F0170072EFA
:1012300042D03D49284600F099FB0A21FEF7CCFF39
:10124000394305A8301808380170082E34D03749C2
:10125000284600F08BFB0A21FEF7BEFF394305A8A4
:10126000301809380170092E26D03149284600F07F
:101270007DFB384305A971180A3908700A2E1BD066
:1012800005A830180B3807700B2E15D005A830189C
:101290000C3807700C2E0FD005A830180D380770C9
:1012A0000D2E09D005A830180E3807700E2E03D069
:1012B00005A830180F38077005A800210391815543
:1012C0000278002A019F009E26D00E9804900128E3
:1012D00001D0102000E0082002900498012801D0DD
:1012E0000C2400E0062405A8451C04E0681C2A78AC
:1012F000002A054610D0F0B2F9B2D2B2049BFFF733
:1013000033FD3019C1B27A2901D9029ABF187A295E
:10131000039EEBD80646E9E709B0F0BD10270000B0
:10132000A086010040420F008096980000E1F5057C
:1013300000CA9A3BF0B583B002931378002B25D0F6
:101340000D4606460298012801D0102000E0082032
:1013500001900298012801D00C2700E00627541CB8
:1013600004E0601C2378002B04460FD0F0B2E9B2F1
:10137000DAB2029BFFF7F8FCF619F0B27A2801D92D
:1013800001996D187A28ECD90026EAE703B0F0BD80
:1013900010B50E4C0E492046FFF774FA0D49204651
:1013A000FFF776F90C48016810220A4302600B48E7
:1013B000016840220A43BF218A43026001200104E0
:1013C000A54A11600649086010BDC04600400840AB
:1013D000101E0000001E00002850084010E400E02D
:1013E0000851084010B50E4C0E492046FFF74AFA46
:1013F0000D492046FFF74CF90C48016820220A43AA
:101400000260FF2000040A490A6882430120830524
:10141000D2180A60904904220A600649086010BD8B
:1014200000000940241E0000141E0000281009407E
:1014300000E400E00811094070B518491848086038
:101440004860012042060B6813430B604B6813434E
:101450004B6081224A63134B9A60DA6085248C6466
:101460005A619A6188245C650F4C8025256025634C
:1014700003256E03266026632D04256025638224E0
:101480008C650A4CCC65A11C5960E11C19609A62FC
:10149000400407490860086470BDC04604804240AB
:1014A0008300060084804240A0120A4082000400AB
:1014B00090320A4080B512481249FFF79BF803208A
:1014C0004102114802680A43026001210A020368CE
:1014D00013430360002242611F224262826B0A436F
:1014E00006239A43826307221202836B934383632A
:1014F000826A042313438362826A0A43826280BD44
:1015000000000F40271E000000120F40B0B582B04F
:101510000D4C0E492046FFF7B5F90D492046FFF75F
:101520007DF80025204629462A46FFF7A3F90095B5
:10153000204629462A462B46FFF790F90548012107
:101540000160816002B0B0BD00008640291E00002D
:101550002C1E00000011864070B582B00E4C0F4961
:101560002046FFF78FF90E492046FFF757F800266F
:101570000125204631462A46FFF77CF90095204692
:10158000314632463346FFF769F9064802210160C9
:10159000856002B070BDC04600208640341E000049
:1015A000381E0000003186400D48002101600320F4
:1015B000C1430C48021F13680B40136041680122AD
:1015C00091434160110242688A43426001683022BF
:1015D0009143016001680F22914301607047C0464A
:1015E00008030B4004010B4010B5144C144920466D
:1015F000FFF7C0F913492046FFF798F9E1204202AE
:1016000011492046FFF74CF91048C16870220A437F
:10161000C26001218A020E4B1C6814431C60FF2229
:1016200012020C4B1C689443CA03A2181A604A03A6
:10163000094B1A6002680A43026010BD00001040A6
:10164000401E0000421E00000048E801001110404A
:10165000281010400CE400E000E100E080B500F04C
:1016600011F8FFF7E9FEFFF79FFFFFF723FFFFF7F2
:101670004DFFFFF771FFFFF7B7FFFFF789FEFFF799
:10168000B1FE80BDF0B581B01048114941601148EC
:101690004160114B5960114C6160114D6960114EF0
:1016A0007160114F7960114841601149074A11601A
:1016B000084A116019602160296031603960016059
:1016C0001020FEF7EAFE01B0F0BDC04600080A4057
:1016D000030000B100280A4000080F4000088640BF
:1016E00000288640004808400008094000081040D3
:1016F0000100002666480168491C01607047C04629
:1017000003481021016003480168491C01607047CB
:101710004850084060002020034820210160034811
:101720000168491C0160704748100940640020208E
:10173000F0B581B03F480068C0B20B2800D077E018
:101740003D4800683D4D2978002605296FD8C046E0
:101750007944097949008F4402070D132334C0B23C
:10176000AA2865D1012662E0C0B2FF38414241415A
:101770004E005CE03449087032490870032656E098
:101780002F490870374A002111702F4A13781B180F
:101790001370401EC0B2102800D201218E0046E016
:1017A00030490A78294B9854521C0A7026490B7804
:1017B0001818087022480078D1B2814238D3052623
:1017C00035E0C0B220490978814230D11D48007807
:1017D00044282CD11A480078062828D11B4F387885
:1017E00079780902081800B2FEF719FE184C214654
:1017F00000F0B8F917490860B878F97809020818B4
:1018000000B2FEF70CFE214600F0ACF91249086068
:10181000387979790902081800B2FEF700FE2146EE
:1018200000F0A0F90D4908600D48012101702E70EB
:1018300001B0F0BD20101040241110409804202069
:101840008A04202085042020840420207404202081
:101850000AD7233C940420208C0420209C042020C0
:10186000860420208704202009490A680B689B1AF7
:1018700083420BD20B689B1A834207D20B689B1AD8
:10188000834203D20B689B1A8342EFD37047C04652
:101890006800202084B0FFF7E1FEFFF78DF8642098
:1018A000FFF7E2FFFFF7DAF8002028A20123014644
:1018B0000293FFF73FFDFFF711FA274880210160EF
:1018C000FFF772F8029D08242046FFF7BBF80026B8
:1018D0003046214621A22B46FFF72CFDFFF754F896
:1018E000024600950C270623039338462146FFF74E
:1018F00031FC10242046FFF7A5F83046214618A2F7
:101900002B46FFF717FDFFF74BF8024600953846C8
:101910002146039BFFF71EFC18242046FFF792F890
:10192000304621460FA22B46FFF704FDFFF730F8A3
:10193000024600951E2005232146FFF70BFCFFF70A
:10194000CDF9C820FFF790FFBDE7C046456E632084
:10195000446562756700000090120A404C3A00002E
:10196000523A00004176673A0000000043088B427B
:101970001AD3002203098B4279D3030A8B425ED328
:10198000030B8B4242D3030C8B4227D30902FF2265
:1019900012BA030C8B4202D31212090203D0030BBA
:1019A0008B4233D31AE0D3E0411A8041401C704788
:1019B00003460B4371D443088B42F5D3002203093D
:1019C0008B4254D3030A8B4239D3030B8B421DD372
:1019D000030C8B4202D394466EE0090AC30B8B4280
:1019E00001D3CB03C01A5241830B8B4201D38B032B
:1019F000C01A5241430B8B4201D34B03C01A5241D0
:101A0000030B8B4201D30B03C01A5241C30A8B4212
:101A100001D3CB02C01A5241830A8B4201D38B02FD
:101A2000C01A5241430A8B4201D34B02C01A5241A1
:101A3000030A8B4201D30B02C01A5241CDD2C30913
:101A40008B4201D3CB01C01A524183098B4201D38F
:101A50008B01C01A524143098B4201D34B01C01A7A
:101A6000524103098B4201D30B01C01A5241C308F2
:101A70008B4201D3CB00C01A524183088B4201D361
:101A80008B00C01A524143088B4201D34B00C01A4D
:101A90005241411A524110007047CA0F00D04942CA
:101AA000031000D34042534000229C4603098B425E
:101AB0002DD3030A8B4212D38901FC2212BA030AE6
:101AC0008B420CD3890192118B4208D38901921168
:101AD0008B4204D3890137D0921100E08909C309F0
:101AE0008B4201D3CB01C01A524183098B4201D3EF
:101AF0008B01C01A524143098B4201D34B01C01ADA
:101B0000524103098B4201D30B01C01A5241C30851
:101B10008B4201D3CB00C01A524183088B4201D3C0
:101B20008B00C01A5241D9D243088B4201D34B00DB
:101B3000C01A5241411A00D2014652411046634632
:101B40005B1000D34042704763465B1000D34042B5
:101B500001B50021004201D0C9430846C046C04635
:101B600002BD000070B5420064414B005C41120EA2
:101B700039D01B0E38D0FF2A3CD0FF2B3AD0D218D8
:101B80007F3A40024902400A490A4518ED01060021
:101B90004E43000A090A48430104731A4019190CFC
:101BA0004318990F04D05B08012149075B1A521CA6
:101BB000D80904D3401CF50301D19D0607D0FF2AA4
:101BC00008D2D50506D0E4072043401970BD012591
:101BD000A843F4E7002A01DCE00770BD2402FF20DF
:101BE0002043C00570BD1B0EFF2A03D0FF2B01D080
:101BF000E00770BDFF2636064500B54206D84D0009
:101C0000B54203D8D218FF2A00D0E7E7004870BDDC
:101C10000000C07F00000000020000000000000083
:101C2000000000000000005F000000070007001433
:101C30007F147F14242A7F2A1223130864623649F2
:101C40005522500005030000001C224100004122E3
:101C50001C0014083E081408083E08080050300014
:101C6000000808080808006060000020100804024E
:101C70003E5149453E00427F400042615149462164
:101C800041454B311814127F1027454545393C4AD0
:101C90004949300171090503364949493606494920
:101CA000291E003636000000563600000814224176
:101CB00000141414141400412214080201510906DE
:101CC000324959513E7E1111117E7F494949363EB4
:101CD000414141227F4141413E7F494949417F097C
:101CE0000909013E4149497A7F0808087F00417F80
:101CF00041002040413F017F081422417F40404085
:101D0000407F0204027F7F0204087F3E4141413E42
:101D10007F090909063E4151215E7F09192946269E
:101D20004949493201017F01013F4040403F1F20A6
:101D300040201F3F4030403F631408146303047881
:101D40000403615149454300007F4100020408102B
:101D50002000417F00000402010204404040404056
:101D6000000102040020545454787F484444383819
:101D700044444420384444487F3854545418087E1E
:101D80000901020C5252523E7F0804047800447D3F
:101D900040002040443D007F1028440000417F4027
:101DA000007C047804787C0804047838444444387F
:101DB0007C14141408081414187C7C0804040848C3
:101DC00054545420043F4440203C4040207C1C207C
:101DD00040201C3C4030403C44281028440C5050CB
:101DE000503C4464544C44000000000000000000DB
:101DF00000000000000000000000000000000000E3
:101E000000000000FFFF00000101000000000000D2
:101E10000800000000000000FFFF000001010100B9
:101E2000000000000800000800080000E8030000AF
:101E30000000010008000000E803000000000100AD
:101E4000080000001800000000300000FFFFFFFF46
:101E5000FFFFFFFFFFFFFFFF681E000000002020C4
:081E6000A005000028010000AC
:04000005000000C136
:00000001FF
